{
	"contracts/Vote.sol": {
		"Vote": {
			"abi": [
				{
					"inputs": [
						{
							"internalType": "string[]",
							"name": "_options",
							"type": "string[]"
						}
					],
					"stateMutability": "nonpayable",
					"type": "constructor"
				},
				{
					"inputs": [],
					"name": "getOptions",
					"outputs": [
						{
							"internalType": "string[]",
							"name": "",
							"type": "string[]"
						}
					],
					"stateMutability": "view",
					"type": "function"
				},
				{
					"inputs": [],
					"name": "getVotes",
					"outputs": [
						{
							"internalType": "uint256[]",
							"name": "",
							"type": "uint256[]"
						}
					],
					"stateMutability": "view",
					"type": "function"
				},
				{
					"inputs": [
						{
							"internalType": "uint256",
							"name": "option",
							"type": "uint256"
						}
					],
					"name": "vote",
					"outputs": [],
					"stateMutability": "nonpayable",
					"type": "function"
				},
				{
					"inputs": [
						{
							"internalType": "string",
							"name": "optionName",
							"type": "string"
						}
					],
					"name": "vote",
					"outputs": [],
					"stateMutability": "nonpayable",
					"type": "function"
				}
			],
			"devdoc": {
				"kind": "dev",
				"methods": {},
				"version": 1
			},
			"evm": {
				"assembly": "    /* \"contracts/Vote.sol\":137:1055  contract Vote {... */\n  mstore(0x40, 0x80)\n    /* \"contracts/Vote.sol\":387:507  constructor(string[] memory _options) {... */\n  callvalue\n  dup1\n  iszero\n  tag_1\n  jumpi\n  0x00\n  dup1\n  revert\ntag_1:\n  pop\n  mload(0x40)\n  sub(codesize, bytecodeSize)\n  dup1\n  bytecodeSize\n  dup4\n  codecopy\n  dup2\n  dup2\n  add\n  0x40\n  mstore\n  dup2\n  add\n  swap1\n  tag_2\n  swap2\n  swap1\n  tag_3\n  jump\t// in\ntag_2:\n    /* \"contracts/Vote.sol\":446:454  _options */\n  dup1\n    /* \"contracts/Vote.sol\":436:443  options */\n  0x01\n    /* \"contracts/Vote.sol\":436:454  options = _options */\n  swap1\n  dup1\n  mload\n  swap1\n  0x20\n  add\n  swap1\n  tag_6\n  swap3\n  swap2\n  swap1\n  tag_7\n  jump\t// in\ntag_6:\n  pop\n    /* \"contracts/Vote.sol\":484:491  options */\n  0x01\n    /* \"contracts/Vote.sol\":484:498  options.length */\n  dup1\n  sload\n  swap1\n  pop\n    /* \"contracts/Vote.sol\":473:499  new uint[](options.length) */\n  0xffffffffffffffff\n  dup2\n  gt\n  iszero\n  tag_8\n  jumpi\n  tag_9\n  tag_10\n  jump\t// in\ntag_9:\ntag_8:\n  mload(0x40)\n  swap1\n  dup1\n  dup3\n  mstore\n  dup1\n  0x20\n  mul\n  0x20\n  add\n  dup3\n  add\n  0x40\n  mstore\n  dup1\n  iszero\n  tag_11\n  jumpi\n  dup2\n  0x20\n  add\n  0x20\n  dup3\n  mul\n  dup1\n  calldatasize\n  dup4\n  calldatacopy\n  dup1\n  dup3\n  add\n  swap2\n  pop\n  pop\n  swap1\n  pop\ntag_11:\n  pop\n    /* \"contracts/Vote.sol\":465:470  votes */\n  0x00\n    /* \"contracts/Vote.sol\":465:499  votes = new uint[](options.length) */\n  swap1\n  dup1\n  mload\n  swap1\n  0x20\n  add\n  swap1\n  tag_12\n  swap3\n  swap2\n  swap1\n  tag_13\n  jump\t// in\ntag_12:\n  pop\n    /* \"contracts/Vote.sol\":387:507  constructor(string[] memory _options) {... */\n  pop\n    /* \"contracts/Vote.sol\":137:1055  contract Vote {... */\n  jump(tag_14)\ntag_7:\n  dup3\n  dup1\n  sload\n  dup3\n  dup3\n  sstore\n  swap1\n  0x00\n  mstore\n  keccak256(0x00, 0x20)\n  swap1\n  dup2\n  add\n  swap3\n  dup3\n  iszero\n  tag_15\n  jumpi\n  swap2\n  0x20\n  mul\n  dup3\n  add\ntag_16:\n  dup3\n  dup2\n  gt\n  iszero\n  tag_17\n  jumpi\n  dup3\n  mload\n  dup3\n  swap1\n  dup2\n  tag_18\n  swap2\n  swap1\n  tag_19\n  jump\t// in\ntag_18:\n  pop\n  swap2\n  0x20\n  add\n  swap2\n  swap1\n  0x01\n  add\n  swap1\n  jump(tag_16)\ntag_17:\ntag_15:\n  pop\n  swap1\n  pop\n  tag_20\n  swap2\n  swap1\n  tag_21\n  jump\t// in\ntag_20:\n  pop\n  swap1\n  jump\t// out\ntag_13:\n  dup3\n  dup1\n  sload\n  dup3\n  dup3\n  sstore\n  swap1\n  0x00\n  mstore\n  keccak256(0x00, 0x20)\n  swap1\n  dup2\n  add\n  swap3\n  dup3\n  iszero\n  tag_22\n  jumpi\n  swap2\n  0x20\n  mul\n  dup3\n  add\ntag_23:\n  dup3\n  dup2\n  gt\n  iszero\n  tag_24\n  jumpi\n  dup3\n  mload\n  dup3\n  sstore\n  swap2\n  0x20\n  add\n  swap2\n  swap1\n  0x01\n  add\n  swap1\n  jump(tag_23)\ntag_24:\ntag_22:\n  pop\n  swap1\n  pop\n  tag_25\n  swap2\n  swap1\n  tag_26\n  jump\t// in\ntag_25:\n  pop\n  swap1\n  jump\t// out\ntag_21:\ntag_27:\n  dup1\n  dup3\n  gt\n  iszero\n  tag_28\n  jumpi\n  0x00\n  dup2\n  dup2\n  tag_29\n  swap2\n  swap1\n  tag_30\n  jump\t// in\ntag_29:\n  pop\n  0x01\n  add\n  jump(tag_27)\ntag_28:\n  pop\n  swap1\n  jump\t// out\ntag_26:\ntag_31:\n  dup1\n  dup3\n  gt\n  iszero\n  tag_32\n  jumpi\n  0x00\n  dup2\n  0x00\n  swap1\n  sstore\n  pop\n  0x01\n  add\n  jump(tag_31)\ntag_32:\n  pop\n  swap1\n  jump\t// out\ntag_30:\n  pop\n  dup1\n  sload\n  tag_33\n  swap1\n  tag_34\n  jump\t// in\ntag_33:\n  0x00\n  dup3\n  sstore\n  dup1\n  0x1f\n  lt\n  tag_36\n  jumpi\n  pop\n  jump(tag_35)\ntag_36:\n  0x1f\n  add\n  0x20\n  swap1\n  div\n  swap1\n  0x00\n  mstore\n  keccak256(0x00, 0x20)\n  swap1\n  dup2\n  add\n  swap1\n  tag_37\n  swap2\n  swap1\n  tag_26\n  jump\t// in\ntag_37:\ntag_35:\n  pop\n  jump\t// out\n    /* \"#utility.yul\":7:82   */\ntag_38:\n    /* \"#utility.yul\":40:46   */\n  0x00\n    /* \"#utility.yul\":73:75   */\n  0x40\n    /* \"#utility.yul\":67:76   */\n  mload\n    /* \"#utility.yul\":57:76   */\n  swap1\n  pop\n    /* \"#utility.yul\":7:82   */\n  swap1\n  jump\t// out\n    /* \"#utility.yul\":88:205   */\ntag_39:\n    /* \"#utility.yul\":197:198   */\n  0x00\n    /* \"#utility.yul\":194:195   */\n  dup1\n    /* \"#utility.yul\":187:199   */\n  revert\n    /* \"#utility.yul\":211:328   */\ntag_40:\n    /* \"#utility.yul\":320:321   */\n  0x00\n    /* \"#utility.yul\":317:318   */\n  dup1\n    /* \"#utility.yul\":310:322   */\n  revert\n    /* \"#utility.yul\":334:451   */\ntag_41:\n    /* \"#utility.yul\":443:444   */\n  0x00\n    /* \"#utility.yul\":440:441   */\n  dup1\n    /* \"#utility.yul\":433:445   */\n  revert\n    /* \"#utility.yul\":457:559   */\ntag_42:\n    /* \"#utility.yul\":498:504   */\n  0x00\n    /* \"#utility.yul\":549:551   */\n  0x1f\n    /* \"#utility.yul\":545:552   */\n  not\n    /* \"#utility.yul\":540:542   */\n  0x1f\n    /* \"#utility.yul\":533:538   */\n  dup4\n    /* \"#utility.yul\":529:543   */\n  add\n    /* \"#utility.yul\":525:553   */\n  and\n    /* \"#utility.yul\":515:553   */\n  swap1\n  pop\n    /* \"#utility.yul\":457:559   */\n  swap2\n  swap1\n  pop\n  jump\t// out\n    /* \"#utility.yul\":565:745   */\ntag_10:\n    /* \"#utility.yul\":613:690   */\n  0x4e487b7100000000000000000000000000000000000000000000000000000000\n    /* \"#utility.yul\":610:611   */\n  0x00\n    /* \"#utility.yul\":603:691   */\n  mstore\n    /* \"#utility.yul\":710:714   */\n  0x41\n    /* \"#utility.yul\":707:708   */\n  0x04\n    /* \"#utility.yul\":700:715   */\n  mstore\n    /* \"#utility.yul\":734:738   */\n  0x24\n    /* \"#utility.yul\":731:732   */\n  0x00\n    /* \"#utility.yul\":724:739   */\n  revert\n    /* \"#utility.yul\":751:1032   */\ntag_43:\n    /* \"#utility.yul\":834:861   */\n  tag_80\n    /* \"#utility.yul\":856:860   */\n  dup3\n    /* \"#utility.yul\":834:861   */\n  tag_42\n  jump\t// in\ntag_80:\n    /* \"#utility.yul\":826:832   */\n  dup2\n    /* \"#utility.yul\":822:862   */\n  add\n    /* \"#utility.yul\":964:970   */\n  dup2\n    /* \"#utility.yul\":952:962   */\n  dup2\n    /* \"#utility.yul\":949:971   */\n  lt\n    /* \"#utility.yul\":928:946   */\n  0xffffffffffffffff\n    /* \"#utility.yul\":916:926   */\n  dup3\n    /* \"#utility.yul\":913:947   */\n  gt\n    /* \"#utility.yul\":910:972   */\n  or\n    /* \"#utility.yul\":907:995   */\n  iszero\n  tag_81\n  jumpi\n    /* \"#utility.yul\":975:993   */\n  tag_82\n  tag_10\n  jump\t// in\ntag_82:\n    /* \"#utility.yul\":907:995   */\ntag_81:\n    /* \"#utility.yul\":1015:1025   */\n  dup1\n    /* \"#utility.yul\":1011:1013   */\n  0x40\n    /* \"#utility.yul\":1004:1026   */\n  mstore\n    /* \"#utility.yul\":794:1032   */\n  pop\n    /* \"#utility.yul\":751:1032   */\n  pop\n  pop\n  jump\t// out\n    /* \"#utility.yul\":1038:1167   */\ntag_44:\n    /* \"#utility.yul\":1072:1078   */\n  0x00\n    /* \"#utility.yul\":1099:1119   */\n  tag_84\n  tag_38\n  jump\t// in\ntag_84:\n    /* \"#utility.yul\":1089:1119   */\n  swap1\n  pop\n    /* \"#utility.yul\":1128:1161   */\n  tag_85\n    /* \"#utility.yul\":1156:1160   */\n  dup3\n    /* \"#utility.yul\":1148:1154   */\n  dup3\n    /* \"#utility.yul\":1128:1161   */\n  tag_43\n  jump\t// in\ntag_85:\n    /* \"#utility.yul\":1038:1167   */\n  swap2\n  swap1\n  pop\n  jump\t// out\n    /* \"#utility.yul\":1173:1494   */\ntag_45:\n    /* \"#utility.yul\":1260:1264   */\n  0x00\n    /* \"#utility.yul\":1350:1368   */\n  0xffffffffffffffff\n    /* \"#utility.yul\":1342:1348   */\n  dup3\n    /* \"#utility.yul\":1339:1369   */\n  gt\n    /* \"#utility.yul\":1336:1392   */\n  iszero\n  tag_87\n  jumpi\n    /* \"#utility.yul\":1372:1390   */\n  tag_88\n  tag_10\n  jump\t// in\ntag_88:\n    /* \"#utility.yul\":1336:1392   */\ntag_87:\n    /* \"#utility.yul\":1422:1426   */\n  0x20\n    /* \"#utility.yul\":1414:1420   */\n  dup3\n    /* \"#utility.yul\":1410:1427   */\n  mul\n    /* \"#utility.yul\":1402:1427   */\n  swap1\n  pop\n    /* \"#utility.yul\":1482:1486   */\n  0x20\n    /* \"#utility.yul\":1476:1480   */\n  dup2\n    /* \"#utility.yul\":1472:1487   */\n  add\n    /* \"#utility.yul\":1464:1487   */\n  swap1\n  pop\n    /* \"#utility.yul\":1173:1494   */\n  swap2\n  swap1\n  pop\n  jump\t// out\n    /* \"#utility.yul\":1500:1617   */\ntag_46:\n    /* \"#utility.yul\":1609:1610   */\n  0x00\n    /* \"#utility.yul\":1606:1607   */\n  dup1\n    /* \"#utility.yul\":1599:1611   */\n  revert\n    /* \"#utility.yul\":1623:1740   */\ntag_47:\n    /* \"#utility.yul\":1732:1733   */\n  0x00\n    /* \"#utility.yul\":1729:1730   */\n  dup1\n    /* \"#utility.yul\":1722:1734   */\n  revert\n    /* \"#utility.yul\":1746:2054   */\ntag_48:\n    /* \"#utility.yul\":1808:1812   */\n  0x00\n    /* \"#utility.yul\":1898:1916   */\n  0xffffffffffffffff\n    /* \"#utility.yul\":1890:1896   */\n  dup3\n    /* \"#utility.yul\":1887:1917   */\n  gt\n    /* \"#utility.yul\":1884:1940   */\n  iszero\n  tag_92\n  jumpi\n    /* \"#utility.yul\":1920:1938   */\n  tag_93\n  tag_10\n  jump\t// in\ntag_93:\n    /* \"#utility.yul\":1884:1940   */\ntag_92:\n    /* \"#utility.yul\":1958:1987   */\n  tag_94\n    /* \"#utility.yul\":1980:1986   */\n  dup3\n    /* \"#utility.yul\":1958:1987   */\n  tag_42\n  jump\t// in\ntag_94:\n    /* \"#utility.yul\":1950:1987   */\n  swap1\n  pop\n    /* \"#utility.yul\":2042:2046   */\n  0x20\n    /* \"#utility.yul\":2036:2040   */\n  dup2\n    /* \"#utility.yul\":2032:2047   */\n  add\n    /* \"#utility.yul\":2024:2047   */\n  swap1\n  pop\n    /* \"#utility.yul\":1746:2054   */\n  swap2\n  swap1\n  pop\n  jump\t// out\n    /* \"#utility.yul\":2060:2306   */\ntag_49:\n    /* \"#utility.yul\":2141:2142   */\n  0x00\n    /* \"#utility.yul\":2151:2264   */\ntag_96:\n    /* \"#utility.yul\":2165:2171   */\n  dup4\n    /* \"#utility.yul\":2162:2163   */\n  dup2\n    /* \"#utility.yul\":2159:2172   */\n  lt\n    /* \"#utility.yul\":2151:2264   */\n  iszero\n  tag_98\n  jumpi\n    /* \"#utility.yul\":2250:2251   */\n  dup1\n    /* \"#utility.yul\":2245:2248   */\n  dup3\n    /* \"#utility.yul\":2241:2252   */\n  add\n    /* \"#utility.yul\":2235:2253   */\n  mload\n    /* \"#utility.yul\":2231:2232   */\n  dup2\n    /* \"#utility.yul\":2226:2229   */\n  dup5\n    /* \"#utility.yul\":2222:2233   */\n  add\n    /* \"#utility.yul\":2215:2254   */\n  mstore\n    /* \"#utility.yul\":2187:2189   */\n  0x20\n    /* \"#utility.yul\":2184:2185   */\n  dup2\n    /* \"#utility.yul\":2180:2190   */\n  add\n    /* \"#utility.yul\":2175:2190   */\n  swap1\n  pop\n    /* \"#utility.yul\":2151:2264   */\n  jump(tag_96)\ntag_98:\n    /* \"#utility.yul\":2298:2299   */\n  0x00\n    /* \"#utility.yul\":2289:2295   */\n  dup5\n    /* \"#utility.yul\":2284:2287   */\n  dup5\n    /* \"#utility.yul\":2280:2296   */\n  add\n    /* \"#utility.yul\":2273:2300   */\n  mstore\n    /* \"#utility.yul\":2122:2306   */\n  pop\n    /* \"#utility.yul\":2060:2306   */\n  pop\n  pop\n  pop\n  jump\t// out\n    /* \"#utility.yul\":2312:2746   */\ntag_50:\n    /* \"#utility.yul\":2401:2406   */\n  0x00\n    /* \"#utility.yul\":2426:2492   */\n  tag_100\n    /* \"#utility.yul\":2442:2491   */\n  tag_101\n    /* \"#utility.yul\":2484:2490   */\n  dup5\n    /* \"#utility.yul\":2442:2491   */\n  tag_48\n  jump\t// in\ntag_101:\n    /* \"#utility.yul\":2426:2492   */\n  tag_44\n  jump\t// in\ntag_100:\n    /* \"#utility.yul\":2417:2492   */\n  swap1\n  pop\n    /* \"#utility.yul\":2515:2521   */\n  dup3\n    /* \"#utility.yul\":2508:2513   */\n  dup2\n    /* \"#utility.yul\":2501:2522   */\n  mstore\n    /* \"#utility.yul\":2553:2557   */\n  0x20\n    /* \"#utility.yul\":2546:2551   */\n  dup2\n    /* \"#utility.yul\":2542:2558   */\n  add\n    /* \"#utility.yul\":2591:2594   */\n  dup5\n    /* \"#utility.yul\":2582:2588   */\n  dup5\n    /* \"#utility.yul\":2577:2580   */\n  dup5\n    /* \"#utility.yul\":2573:2589   */\n  add\n    /* \"#utility.yul\":2570:2595   */\n  gt\n    /* \"#utility.yul\":2567:2679   */\n  iszero\n  tag_102\n  jumpi\n    /* \"#utility.yul\":2598:2677   */\n  tag_103\n  tag_47\n  jump\t// in\ntag_103:\n    /* \"#utility.yul\":2567:2679   */\ntag_102:\n    /* \"#utility.yul\":2688:2740   */\n  tag_104\n    /* \"#utility.yul\":2733:2739   */\n  dup5\n    /* \"#utility.yul\":2728:2731   */\n  dup3\n    /* \"#utility.yul\":2723:2726   */\n  dup6\n    /* \"#utility.yul\":2688:2740   */\n  tag_49\n  jump\t// in\ntag_104:\n    /* \"#utility.yul\":2407:2746   */\n  pop\n    /* \"#utility.yul\":2312:2746   */\n  swap4\n  swap3\n  pop\n  pop\n  pop\n  jump\t// out\n    /* \"#utility.yul\":2766:3121   */\ntag_51:\n    /* \"#utility.yul\":2833:2838   */\n  0x00\n    /* \"#utility.yul\":2882:2885   */\n  dup3\n    /* \"#utility.yul\":2875:2879   */\n  0x1f\n    /* \"#utility.yul\":2867:2873   */\n  dup4\n    /* \"#utility.yul\":2863:2880   */\n  add\n    /* \"#utility.yul\":2859:2886   */\n  slt\n    /* \"#utility.yul\":2849:2971   */\n  tag_106\n  jumpi\n    /* \"#utility.yul\":2890:2969   */\n  tag_107\n  tag_41\n  jump\t// in\ntag_107:\n    /* \"#utility.yul\":2849:2971   */\ntag_106:\n    /* \"#utility.yul\":3000:3006   */\n  dup2\n    /* \"#utility.yul\":2994:3007   */\n  mload\n    /* \"#utility.yul\":3025:3115   */\n  tag_108\n    /* \"#utility.yul\":3111:3114   */\n  dup5\n    /* \"#utility.yul\":3103:3109   */\n  dup3\n    /* \"#utility.yul\":3096:3100   */\n  0x20\n    /* \"#utility.yul\":3088:3094   */\n  dup7\n    /* \"#utility.yul\":3084:3101   */\n  add\n    /* \"#utility.yul\":3025:3115   */\n  tag_50\n  jump\t// in\ntag_108:\n    /* \"#utility.yul\":3016:3115   */\n  swap2\n  pop\n    /* \"#utility.yul\":2839:3121   */\n  pop\n    /* \"#utility.yul\":2766:3121   */\n  swap3\n  swap2\n  pop\n  pop\n  jump\t// out\n    /* \"#utility.yul\":3143:4103   */\ntag_52:\n    /* \"#utility.yul\":3260:3265   */\n  0x00\n    /* \"#utility.yul\":3285:3376   */\n  tag_110\n    /* \"#utility.yul\":3301:3375   */\n  tag_111\n    /* \"#utility.yul\":3368:3374   */\n  dup5\n    /* \"#utility.yul\":3301:3375   */\n  tag_45\n  jump\t// in\ntag_111:\n    /* \"#utility.yul\":3285:3376   */\n  tag_44\n  jump\t// in\ntag_110:\n    /* \"#utility.yul\":3276:3376   */\n  swap1\n  pop\n    /* \"#utility.yul\":3396:3401   */\n  dup1\n    /* \"#utility.yul\":3425:3431   */\n  dup4\n    /* \"#utility.yul\":3418:3423   */\n  dup3\n    /* \"#utility.yul\":3411:3432   */\n  mstore\n    /* \"#utility.yul\":3459:3463   */\n  0x20\n    /* \"#utility.yul\":3452:3457   */\n  dup3\n    /* \"#utility.yul\":3448:3464   */\n  add\n    /* \"#utility.yul\":3441:3464   */\n  swap1\n  pop\n    /* \"#utility.yul\":3512:3516   */\n  0x20\n    /* \"#utility.yul\":3504:3510   */\n  dup5\n    /* \"#utility.yul\":3500:3517   */\n  mul\n    /* \"#utility.yul\":3492:3498   */\n  dup4\n    /* \"#utility.yul\":3488:3518   */\n  add\n    /* \"#utility.yul\":3541:3544   */\n  dup6\n    /* \"#utility.yul\":3533:3539   */\n  dup2\n    /* \"#utility.yul\":3530:3545   */\n  gt\n    /* \"#utility.yul\":3527:3649   */\n  iszero\n  tag_112\n  jumpi\n    /* \"#utility.yul\":3560:3639   */\n  tag_113\n  tag_46\n  jump\t// in\ntag_113:\n    /* \"#utility.yul\":3527:3649   */\ntag_112:\n    /* \"#utility.yul\":3675:3681   */\n  dup4\n    /* \"#utility.yul\":3658:4097   */\ntag_114:\n    /* \"#utility.yul\":3692:3698   */\n  dup2\n    /* \"#utility.yul\":3687:3690   */\n  dup2\n    /* \"#utility.yul\":3684:3699   */\n  lt\n    /* \"#utility.yul\":3658:4097   */\n  iszero\n  tag_116\n  jumpi\n    /* \"#utility.yul\":3774:3777   */\n  dup1\n    /* \"#utility.yul\":3768:3778   */\n  mload\n    /* \"#utility.yul\":3810:3828   */\n  0xffffffffffffffff\n    /* \"#utility.yul\":3797:3808   */\n  dup2\n    /* \"#utility.yul\":3794:3829   */\n  gt\n    /* \"#utility.yul\":3791:3913   */\n  iszero\n  tag_117\n  jumpi\n    /* \"#utility.yul\":3832:3911   */\n  tag_118\n  tag_41\n  jump\t// in\ntag_118:\n    /* \"#utility.yul\":3791:3913   */\ntag_117:\n    /* \"#utility.yul\":3956:3967   */\n  dup1\n    /* \"#utility.yul\":3948:3954   */\n  dup7\n    /* \"#utility.yul\":3944:3968   */\n  add\n    /* \"#utility.yul\":3994:4052   */\n  tag_119\n    /* \"#utility.yul\":4048:4051   */\n  dup10\n    /* \"#utility.yul\":4036:4046   */\n  dup3\n    /* \"#utility.yul\":3994:4052   */\n  tag_51\n  jump\t// in\ntag_119:\n    /* \"#utility.yul\":3989:3992   */\n  dup6\n    /* \"#utility.yul\":3982:4053   */\n  mstore\n    /* \"#utility.yul\":4082:4086   */\n  0x20\n    /* \"#utility.yul\":4077:4080   */\n  dup6\n    /* \"#utility.yul\":4073:4087   */\n  add\n    /* \"#utility.yul\":4066:4087   */\n  swap5\n  pop\n    /* \"#utility.yul\":3734:4097   */\n  pop\n  pop\n    /* \"#utility.yul\":3718:3722   */\n  0x20\n    /* \"#utility.yul\":3713:3716   */\n  dup2\n    /* \"#utility.yul\":3709:3723   */\n  add\n    /* \"#utility.yul\":3702:3723   */\n  swap1\n  pop\n    /* \"#utility.yul\":3658:4097   */\n  jump(tag_114)\ntag_116:\n    /* \"#utility.yul\":3662:3683   */\n  pop\n    /* \"#utility.yul\":3266:4103   */\n  pop\n  pop\n    /* \"#utility.yul\":3143:4103   */\n  swap4\n  swap3\n  pop\n  pop\n  pop\n  jump\t// out\n    /* \"#utility.yul\":4125:4530   */\ntag_53:\n    /* \"#utility.yul\":4217:4222   */\n  0x00\n    /* \"#utility.yul\":4266:4269   */\n  dup3\n    /* \"#utility.yul\":4259:4263   */\n  0x1f\n    /* \"#utility.yul\":4251:4257   */\n  dup4\n    /* \"#utility.yul\":4247:4264   */\n  add\n    /* \"#utility.yul\":4243:4270   */\n  slt\n    /* \"#utility.yul\":4233:4355   */\n  tag_121\n  jumpi\n    /* \"#utility.yul\":4274:4353   */\n  tag_122\n  tag_41\n  jump\t// in\ntag_122:\n    /* \"#utility.yul\":4233:4355   */\ntag_121:\n    /* \"#utility.yul\":4384:4390   */\n  dup2\n    /* \"#utility.yul\":4378:4391   */\n  mload\n    /* \"#utility.yul\":4409:4524   */\n  tag_123\n    /* \"#utility.yul\":4520:4523   */\n  dup5\n    /* \"#utility.yul\":4512:4518   */\n  dup3\n    /* \"#utility.yul\":4505:4509   */\n  0x20\n    /* \"#utility.yul\":4497:4503   */\n  dup7\n    /* \"#utility.yul\":4493:4510   */\n  add\n    /* \"#utility.yul\":4409:4524   */\n  tag_52\n  jump\t// in\ntag_123:\n    /* \"#utility.yul\":4400:4524   */\n  swap2\n  pop\n    /* \"#utility.yul\":4223:4530   */\n  pop\n    /* \"#utility.yul\":4125:4530   */\n  swap3\n  swap2\n  pop\n  pop\n  jump\t// out\n    /* \"#utility.yul\":4536:5110   */\ntag_3:\n    /* \"#utility.yul\":4641:4647   */\n  0x00\n    /* \"#utility.yul\":4690:4692   */\n  0x20\n    /* \"#utility.yul\":4678:4687   */\n  dup3\n    /* \"#utility.yul\":4669:4676   */\n  dup5\n    /* \"#utility.yul\":4665:4688   */\n  sub\n    /* \"#utility.yul\":4661:4693   */\n  slt\n    /* \"#utility.yul\":4658:4777   */\n  iszero\n  tag_125\n  jumpi\n    /* \"#utility.yul\":4696:4775   */\n  tag_126\n  tag_39\n  jump\t// in\ntag_126:\n    /* \"#utility.yul\":4658:4777   */\ntag_125:\n    /* \"#utility.yul\":4837:4838   */\n  0x00\n    /* \"#utility.yul\":4826:4835   */\n  dup3\n    /* \"#utility.yul\":4822:4839   */\n  add\n    /* \"#utility.yul\":4816:4840   */\n  mload\n    /* \"#utility.yul\":4867:4885   */\n  0xffffffffffffffff\n    /* \"#utility.yul\":4859:4865   */\n  dup2\n    /* \"#utility.yul\":4856:4886   */\n  gt\n    /* \"#utility.yul\":4853:4970   */\n  iszero\n  tag_127\n  jumpi\n    /* \"#utility.yul\":4889:4968   */\n  tag_128\n  tag_40\n  jump\t// in\ntag_128:\n    /* \"#utility.yul\":4853:4970   */\ntag_127:\n    /* \"#utility.yul\":4994:5093   */\n  tag_129\n    /* \"#utility.yul\":5085:5092   */\n  dup5\n    /* \"#utility.yul\":5076:5082   */\n  dup3\n    /* \"#utility.yul\":5065:5074   */\n  dup6\n    /* \"#utility.yul\":5061:5083   */\n  add\n    /* \"#utility.yul\":4994:5093   */\n  tag_53\n  jump\t// in\ntag_129:\n    /* \"#utility.yul\":4984:5093   */\n  swap2\n  pop\n    /* \"#utility.yul\":4787:5103   */\n  pop\n    /* \"#utility.yul\":4536:5110   */\n  swap3\n  swap2\n  pop\n  pop\n  jump\t// out\n    /* \"#utility.yul\":5116:5215   */\ntag_54:\n    /* \"#utility.yul\":5168:5174   */\n  0x00\n    /* \"#utility.yul\":5202:5207   */\n  dup2\n    /* \"#utility.yul\":5196:5208   */\n  mload\n    /* \"#utility.yul\":5186:5208   */\n  swap1\n  pop\n    /* \"#utility.yul\":5116:5215   */\n  swap2\n  swap1\n  pop\n  jump\t// out\n    /* \"#utility.yul\":5221:5401   */\ntag_55:\n    /* \"#utility.yul\":5269:5346   */\n  0x4e487b7100000000000000000000000000000000000000000000000000000000\n    /* \"#utility.yul\":5266:5267   */\n  0x00\n    /* \"#utility.yul\":5259:5347   */\n  mstore\n    /* \"#utility.yul\":5366:5370   */\n  0x22\n    /* \"#utility.yul\":5363:5364   */\n  0x04\n    /* \"#utility.yul\":5356:5371   */\n  mstore\n    /* \"#utility.yul\":5390:5394   */\n  0x24\n    /* \"#utility.yul\":5387:5388   */\n  0x00\n    /* \"#utility.yul\":5380:5395   */\n  revert\n    /* \"#utility.yul\":5407:5727   */\ntag_34:\n    /* \"#utility.yul\":5451:5457   */\n  0x00\n    /* \"#utility.yul\":5488:5489   */\n  0x02\n    /* \"#utility.yul\":5482:5486   */\n  dup3\n    /* \"#utility.yul\":5478:5490   */\n  div\n    /* \"#utility.yul\":5468:5490   */\n  swap1\n  pop\n    /* \"#utility.yul\":5535:5536   */\n  0x01\n    /* \"#utility.yul\":5529:5533   */\n  dup3\n    /* \"#utility.yul\":5525:5537   */\n  and\n    /* \"#utility.yul\":5556:5574   */\n  dup1\n    /* \"#utility.yul\":5546:5627   */\n  tag_133\n  jumpi\n    /* \"#utility.yul\":5612:5616   */\n  0x7f\n    /* \"#utility.yul\":5604:5610   */\n  dup3\n    /* \"#utility.yul\":5600:5617   */\n  and\n    /* \"#utility.yul\":5590:5617   */\n  swap2\n  pop\n    /* \"#utility.yul\":5546:5627   */\ntag_133:\n    /* \"#utility.yul\":5674:5676   */\n  0x20\n    /* \"#utility.yul\":5666:5672   */\n  dup3\n    /* \"#utility.yul\":5663:5677   */\n  lt\n    /* \"#utility.yul\":5643:5661   */\n  dup2\n    /* \"#utility.yul\":5640:5678   */\n  sub\n    /* \"#utility.yul\":5637:5721   */\n  tag_134\n  jumpi\n    /* \"#utility.yul\":5693:5711   */\n  tag_135\n  tag_55\n  jump\t// in\ntag_135:\n    /* \"#utility.yul\":5637:5721   */\ntag_134:\n    /* \"#utility.yul\":5458:5727   */\n  pop\n    /* \"#utility.yul\":5407:5727   */\n  swap2\n  swap1\n  pop\n  jump\t// out\n    /* \"#utility.yul\":5733:5874   */\ntag_56:\n    /* \"#utility.yul\":5782:5786   */\n  0x00\n    /* \"#utility.yul\":5805:5808   */\n  dup2\n    /* \"#utility.yul\":5797:5808   */\n  swap1\n  pop\n    /* \"#utility.yul\":5828:5831   */\n  dup2\n    /* \"#utility.yul\":5825:5826   */\n  0x00\n    /* \"#utility.yul\":5818:5832   */\n  mstore\n    /* \"#utility.yul\":5862:5866   */\n  0x20\n    /* \"#utility.yul\":5859:5860   */\n  0x00\n    /* \"#utility.yul\":5849:5867   */\n  keccak256\n    /* \"#utility.yul\":5841:5867   */\n  swap1\n  pop\n    /* \"#utility.yul\":5733:5874   */\n  swap2\n  swap1\n  pop\n  jump\t// out\n    /* \"#utility.yul\":5880:5973   */\ntag_57:\n    /* \"#utility.yul\":5917:5923   */\n  0x00\n    /* \"#utility.yul\":5964:5966   */\n  0x20\n    /* \"#utility.yul\":5959:5961   */\n  0x1f\n    /* \"#utility.yul\":5952:5957   */\n  dup4\n    /* \"#utility.yul\":5948:5962   */\n  add\n    /* \"#utility.yul\":5944:5967   */\n  div\n    /* \"#utility.yul\":5934:5967   */\n  swap1\n  pop\n    /* \"#utility.yul\":5880:5973   */\n  swap2\n  swap1\n  pop\n  jump\t// out\n    /* \"#utility.yul\":5979:6086   */\ntag_58:\n    /* \"#utility.yul\":6023:6031   */\n  0x00\n    /* \"#utility.yul\":6073:6078   */\n  dup3\n    /* \"#utility.yul\":6067:6071   */\n  dup3\n    /* \"#utility.yul\":6063:6079   */\n  shl\n    /* \"#utility.yul\":6042:6079   */\n  swap1\n  pop\n    /* \"#utility.yul\":5979:6086   */\n  swap3\n  swap2\n  pop\n  pop\n  jump\t// out\n    /* \"#utility.yul\":6092:6485   */\ntag_59:\n    /* \"#utility.yul\":6161:6167   */\n  0x00\n    /* \"#utility.yul\":6211:6212   */\n  0x08\n    /* \"#utility.yul\":6199:6209   */\n  dup4\n    /* \"#utility.yul\":6195:6213   */\n  mul\n    /* \"#utility.yul\":6234:6331   */\n  tag_140\n    /* \"#utility.yul\":6264:6330   */\n  0xffffffffffffffffffffffffffffffffffffffffffffffffffffffffffffffff\n    /* \"#utility.yul\":6253:6262   */\n  dup3\n    /* \"#utility.yul\":6234:6331   */\n  tag_58\n  jump\t// in\ntag_140:\n    /* \"#utility.yul\":6352:6391   */\n  tag_141\n    /* \"#utility.yul\":6382:6390   */\n  dup7\n    /* \"#utility.yul\":6371:6380   */\n  dup4\n    /* \"#utility.yul\":6352:6391   */\n  tag_58\n  jump\t// in\ntag_141:\n    /* \"#utility.yul\":6340:6391   */\n  swap6\n  pop\n    /* \"#utility.yul\":6424:6428   */\n  dup1\n    /* \"#utility.yul\":6420:6429   */\n  not\n    /* \"#utility.yul\":6413:6418   */\n  dup5\n    /* \"#utility.yul\":6409:6430   */\n  and\n    /* \"#utility.yul\":6400:6430   */\n  swap4\n  pop\n    /* \"#utility.yul\":6473:6477   */\n  dup1\n    /* \"#utility.yul\":6463:6471   */\n  dup7\n    /* \"#utility.yul\":6459:6478   */\n  and\n    /* \"#utility.yul\":6452:6457   */\n  dup5\n    /* \"#utility.yul\":6449:6479   */\n  or\n    /* \"#utility.yul\":6439:6479   */\n  swap3\n  pop\n    /* \"#utility.yul\":6168:6485   */\n  pop\n  pop\n    /* \"#utility.yul\":6092:6485   */\n  swap4\n  swap3\n  pop\n  pop\n  pop\n  jump\t// out\n    /* \"#utility.yul\":6491:6568   */\ntag_60:\n    /* \"#utility.yul\":6528:6535   */\n  0x00\n    /* \"#utility.yul\":6557:6562   */\n  dup2\n    /* \"#utility.yul\":6546:6562   */\n  swap1\n  pop\n    /* \"#utility.yul\":6491:6568   */\n  swap2\n  swap1\n  pop\n  jump\t// out\n    /* \"#utility.yul\":6574:6634   */\ntag_61:\n    /* \"#utility.yul\":6602:6605   */\n  0x00\n    /* \"#utility.yul\":6623:6628   */\n  dup2\n    /* \"#utility.yul\":6616:6628   */\n  swap1\n  pop\n    /* \"#utility.yul\":6574:6634   */\n  swap2\n  swap1\n  pop\n  jump\t// out\n    /* \"#utility.yul\":6640:6782   */\ntag_62:\n    /* \"#utility.yul\":6690:6699   */\n  0x00\n    /* \"#utility.yul\":6723:6776   */\n  tag_145\n    /* \"#utility.yul\":6741:6775   */\n  tag_146\n    /* \"#utility.yul\":6750:6774   */\n  tag_147\n    /* \"#utility.yul\":6768:6773   */\n  dup5\n    /* \"#utility.yul\":6750:6774   */\n  tag_60\n  jump\t// in\ntag_147:\n    /* \"#utility.yul\":6741:6775   */\n  tag_61\n  jump\t// in\ntag_146:\n    /* \"#utility.yul\":6723:6776   */\n  tag_60\n  jump\t// in\ntag_145:\n    /* \"#utility.yul\":6710:6776   */\n  swap1\n  pop\n    /* \"#utility.yul\":6640:6782   */\n  swap2\n  swap1\n  pop\n  jump\t// out\n    /* \"#utility.yul\":6788:6863   */\ntag_63:\n    /* \"#utility.yul\":6831:6834   */\n  0x00\n    /* \"#utility.yul\":6852:6857   */\n  dup2\n    /* \"#utility.yul\":6845:6857   */\n  swap1\n  pop\n    /* \"#utility.yul\":6788:6863   */\n  swap2\n  swap1\n  pop\n  jump\t// out\n    /* \"#utility.yul\":6869:7138   */\ntag_64:\n    /* \"#utility.yul\":6979:7018   */\n  tag_150\n    /* \"#utility.yul\":7010:7017   */\n  dup4\n    /* \"#utility.yul\":6979:7018   */\n  tag_62\n  jump\t// in\ntag_150:\n    /* \"#utility.yul\":7040:7131   */\n  tag_151\n    /* \"#utility.yul\":7089:7130   */\n  tag_152\n    /* \"#utility.yul\":7113:7129   */\n  dup3\n    /* \"#utility.yul\":7089:7130   */\n  tag_63\n  jump\t// in\ntag_152:\n    /* \"#utility.yul\":7081:7087   */\n  dup5\n    /* \"#utility.yul\":7074:7078   */\n  dup5\n    /* \"#utility.yul\":7068:7079   */\n  sload\n    /* \"#utility.yul\":7040:7131   */\n  tag_59\n  jump\t// in\ntag_151:\n    /* \"#utility.yul\":7034:7038   */\n  dup3\n    /* \"#utility.yul\":7027:7132   */\n  sstore\n    /* \"#utility.yul\":6945:7138   */\n  pop\n    /* \"#utility.yul\":6869:7138   */\n  pop\n  pop\n  pop\n  jump\t// out\n    /* \"#utility.yul\":7144:7217   */\ntag_65:\n    /* \"#utility.yul\":7189:7192   */\n  0x00\n    /* \"#utility.yul\":7144:7217   */\n  swap1\n  jump\t// out\n    /* \"#utility.yul\":7223:7412   */\ntag_66:\n    /* \"#utility.yul\":7300:7332   */\n  tag_155\n  tag_65\n  jump\t// in\ntag_155:\n    /* \"#utility.yul\":7341:7406   */\n  tag_156\n    /* \"#utility.yul\":7399:7405   */\n  dup2\n    /* \"#utility.yul\":7391:7397   */\n  dup5\n    /* \"#utility.yul\":7385:7389   */\n  dup5\n    /* \"#utility.yul\":7341:7406   */\n  tag_64\n  jump\t// in\ntag_156:\n    /* \"#utility.yul\":7276:7412   */\n  pop\n    /* \"#utility.yul\":7223:7412   */\n  pop\n  pop\n  jump\t// out\n    /* \"#utility.yul\":7418:7604   */\ntag_67:\n    /* \"#utility.yul\":7478:7598   */\ntag_158:\n    /* \"#utility.yul\":7495:7498   */\n  dup2\n    /* \"#utility.yul\":7488:7493   */\n  dup2\n    /* \"#utility.yul\":7485:7499   */\n  lt\n    /* \"#utility.yul\":7478:7598   */\n  iszero\n  tag_160\n  jumpi\n    /* \"#utility.yul\":7549:7588   */\n  tag_161\n    /* \"#utility.yul\":7586:7587   */\n  0x00\n    /* \"#utility.yul\":7579:7584   */\n  dup3\n    /* \"#utility.yul\":7549:7588   */\n  tag_66\n  jump\t// in\ntag_161:\n    /* \"#utility.yul\":7522:7523   */\n  0x01\n    /* \"#utility.yul\":7515:7520   */\n  dup2\n    /* \"#utility.yul\":7511:7524   */\n  add\n    /* \"#utility.yul\":7502:7524   */\n  swap1\n  pop\n    /* \"#utility.yul\":7478:7598   */\n  jump(tag_158)\ntag_160:\n    /* \"#utility.yul\":7418:7604   */\n  pop\n  pop\n  jump\t// out\n    /* \"#utility.yul\":7610:8153   */\ntag_68:\n    /* \"#utility.yul\":7711:7713   */\n  0x1f\n    /* \"#utility.yul\":7706:7709   */\n  dup3\n    /* \"#utility.yul\":7703:7714   */\n  gt\n    /* \"#utility.yul\":7700:8146   */\n  iszero\n  tag_163\n  jumpi\n    /* \"#utility.yul\":7745:7783   */\n  tag_164\n    /* \"#utility.yul\":7777:7782   */\n  dup2\n    /* \"#utility.yul\":7745:7783   */\n  tag_56\n  jump\t// in\ntag_164:\n    /* \"#utility.yul\":7829:7858   */\n  tag_165\n    /* \"#utility.yul\":7847:7857   */\n  dup5\n    /* \"#utility.yul\":7829:7858   */\n  tag_57\n  jump\t// in\ntag_165:\n    /* \"#utility.yul\":7819:7827   */\n  dup2\n    /* \"#utility.yul\":7815:7859   */\n  add\n    /* \"#utility.yul\":8012:8014   */\n  0x20\n    /* \"#utility.yul\":8000:8010   */\n  dup6\n    /* \"#utility.yul\":7997:8015   */\n  lt\n    /* \"#utility.yul\":7994:8043   */\n  iszero\n  tag_166\n  jumpi\n    /* \"#utility.yul\":8033:8041   */\n  dup2\n    /* \"#utility.yul\":8018:8041   */\n  swap1\n  pop\n    /* \"#utility.yul\":7994:8043   */\ntag_166:\n    /* \"#utility.yul\":8056:8136   */\n  tag_167\n    /* \"#utility.yul\":8112:8134   */\n  tag_168\n    /* \"#utility.yul\":8130:8133   */\n  dup6\n    /* \"#utility.yul\":8112:8134   */\n  tag_57\n  jump\t// in\ntag_168:\n    /* \"#utility.yul\":8102:8110   */\n  dup4\n    /* \"#utility.yul\":8098:8135   */\n  add\n    /* \"#utility.yul\":8085:8096   */\n  dup3\n    /* \"#utility.yul\":8056:8136   */\n  tag_67\n  jump\t// in\ntag_167:\n    /* \"#utility.yul\":7715:8146   */\n  pop\n  pop\n    /* \"#utility.yul\":7700:8146   */\ntag_163:\n    /* \"#utility.yul\":7610:8153   */\n  pop\n  pop\n  pop\n  jump\t// out\n    /* \"#utility.yul\":8159:8276   */\ntag_69:\n    /* \"#utility.yul\":8213:8221   */\n  0x00\n    /* \"#utility.yul\":8263:8268   */\n  dup3\n    /* \"#utility.yul\":8257:8261   */\n  dup3\n    /* \"#utility.yul\":8253:8269   */\n  shr\n    /* \"#utility.yul\":8232:8269   */\n  swap1\n  pop\n    /* \"#utility.yul\":8159:8276   */\n  swap3\n  swap2\n  pop\n  pop\n  jump\t// out\n    /* \"#utility.yul\":8282:8451   */\ntag_70:\n    /* \"#utility.yul\":8326:8332   */\n  0x00\n    /* \"#utility.yul\":8359:8410   */\n  tag_171\n    /* \"#utility.yul\":8407:8408   */\n  0x00\n    /* \"#utility.yul\":8403:8409   */\n  not\n    /* \"#utility.yul\":8395:8400   */\n  dup5\n    /* \"#utility.yul\":8392:8393   */\n  0x08\n    /* \"#utility.yul\":8388:8401   */\n  mul\n    /* \"#utility.yul\":8359:8410   */\n  tag_69\n  jump\t// in\ntag_171:\n    /* \"#utility.yul\":8355:8411   */\n  not\n    /* \"#utility.yul\":8440:8444   */\n  dup1\n    /* \"#utility.yul\":8434:8438   */\n  dup4\n    /* \"#utility.yul\":8430:8445   */\n  and\n    /* \"#utility.yul\":8420:8445   */\n  swap2\n  pop\n    /* \"#utility.yul\":8333:8451   */\n  pop\n    /* \"#utility.yul\":8282:8451   */\n  swap3\n  swap2\n  pop\n  pop\n  jump\t// out\n    /* \"#utility.yul\":8456:8751   */\ntag_71:\n    /* \"#utility.yul\":8532:8536   */\n  0x00\n    /* \"#utility.yul\":8678:8707   */\n  tag_173\n    /* \"#utility.yul\":8703:8706   */\n  dup4\n    /* \"#utility.yul\":8697:8701   */\n  dup4\n    /* \"#utility.yul\":8678:8707   */\n  tag_70\n  jump\t// in\ntag_173:\n    /* \"#utility.yul\":8670:8707   */\n  swap2\n  pop\n    /* \"#utility.yul\":8740:8743   */\n  dup3\n    /* \"#utility.yul\":8737:8738   */\n  0x02\n    /* \"#utility.yul\":8733:8744   */\n  mul\n    /* \"#utility.yul\":8727:8731   */\n  dup3\n    /* \"#utility.yul\":8724:8745   */\n  or\n    /* \"#utility.yul\":8716:8745   */\n  swap1\n  pop\n    /* \"#utility.yul\":8456:8751   */\n  swap3\n  swap2\n  pop\n  pop\n  jump\t// out\n    /* \"#utility.yul\":8756:10151   */\ntag_19:\n    /* \"#utility.yul\":8873:8910   */\n  tag_175\n    /* \"#utility.yul\":8906:8909   */\n  dup3\n    /* \"#utility.yul\":8873:8910   */\n  tag_54\n  jump\t// in\ntag_175:\n    /* \"#utility.yul\":8975:8993   */\n  0xffffffffffffffff\n    /* \"#utility.yul\":8967:8973   */\n  dup2\n    /* \"#utility.yul\":8964:8994   */\n  gt\n    /* \"#utility.yul\":8961:9017   */\n  iszero\n  tag_176\n  jumpi\n    /* \"#utility.yul\":8997:9015   */\n  tag_177\n  tag_10\n  jump\t// in\ntag_177:\n    /* \"#utility.yul\":8961:9017   */\ntag_176:\n    /* \"#utility.yul\":9041:9079   */\n  tag_178\n    /* \"#utility.yul\":9073:9077   */\n  dup3\n    /* \"#utility.yul\":9067:9078   */\n  sload\n    /* \"#utility.yul\":9041:9079   */\n  tag_34\n  jump\t// in\ntag_178:\n    /* \"#utility.yul\":9126:9193   */\n  tag_179\n    /* \"#utility.yul\":9186:9192   */\n  dup3\n    /* \"#utility.yul\":9178:9184   */\n  dup3\n    /* \"#utility.yul\":9172:9176   */\n  dup6\n    /* \"#utility.yul\":9126:9193   */\n  tag_68\n  jump\t// in\ntag_179:\n    /* \"#utility.yul\":9220:9221   */\n  0x00\n    /* \"#utility.yul\":9244:9248   */\n  0x20\n    /* \"#utility.yul\":9231:9248   */\n  swap1\n  pop\n    /* \"#utility.yul\":9276:9278   */\n  0x1f\n    /* \"#utility.yul\":9268:9274   */\n  dup4\n    /* \"#utility.yul\":9265:9279   */\n  gt\n    /* \"#utility.yul\":9293:9294   */\n  0x01\n    /* \"#utility.yul\":9288:9906   */\n  dup2\n  eq\n  tag_181\n  jumpi\n    /* \"#utility.yul\":9950:9951   */\n  0x00\n    /* \"#utility.yul\":9967:9973   */\n  dup5\n    /* \"#utility.yul\":9964:10041   */\n  iszero\n  tag_182\n  jumpi\n    /* \"#utility.yul\":10016:10025   */\n  dup3\n    /* \"#utility.yul\":10011:10014   */\n  dup8\n    /* \"#utility.yul\":10007:10026   */\n  add\n    /* \"#utility.yul\":10001:10027   */\n  mload\n    /* \"#utility.yul\":9992:10027   */\n  swap1\n  pop\n    /* \"#utility.yul\":9964:10041   */\ntag_182:\n    /* \"#utility.yul\":10067:10134   */\n  tag_183\n    /* \"#utility.yul\":10127:10133   */\n  dup6\n    /* \"#utility.yul\":10120:10125   */\n  dup3\n    /* \"#utility.yul\":10067:10134   */\n  tag_71\n  jump\t// in\ntag_183:\n    /* \"#utility.yul\":10061:10065   */\n  dup7\n    /* \"#utility.yul\":10054:10135   */\n  sstore\n    /* \"#utility.yul\":9923:10145   */\n  pop\n    /* \"#utility.yul\":9258:10145   */\n  jump(tag_180)\n    /* \"#utility.yul\":9288:9906   */\ntag_181:\n    /* \"#utility.yul\":9340:9344   */\n  0x1f\n    /* \"#utility.yul\":9336:9345   */\n  not\n    /* \"#utility.yul\":9328:9334   */\n  dup5\n    /* \"#utility.yul\":9324:9346   */\n  and\n    /* \"#utility.yul\":9374:9411   */\n  tag_184\n    /* \"#utility.yul\":9406:9410   */\n  dup7\n    /* \"#utility.yul\":9374:9411   */\n  tag_56\n  jump\t// in\ntag_184:\n    /* \"#utility.yul\":9433:9434   */\n  0x00\n    /* \"#utility.yul\":9447:9655   */\ntag_185:\n    /* \"#utility.yul\":9461:9468   */\n  dup3\n    /* \"#utility.yul\":9458:9459   */\n  dup2\n    /* \"#utility.yul\":9455:9469   */\n  lt\n    /* \"#utility.yul\":9447:9655   */\n  iszero\n  tag_187\n  jumpi\n    /* \"#utility.yul\":9540:9549   */\n  dup5\n    /* \"#utility.yul\":9535:9538   */\n  dup10\n    /* \"#utility.yul\":9531:9550   */\n  add\n    /* \"#utility.yul\":9525:9551   */\n  mload\n    /* \"#utility.yul\":9517:9523   */\n  dup3\n    /* \"#utility.yul\":9510:9552   */\n  sstore\n    /* \"#utility.yul\":9591:9592   */\n  0x01\n    /* \"#utility.yul\":9583:9589   */\n  dup3\n    /* \"#utility.yul\":9579:9593   */\n  add\n    /* \"#utility.yul\":9569:9593   */\n  swap2\n  pop\n    /* \"#utility.yul\":9638:9640   */\n  0x20\n    /* \"#utility.yul\":9627:9636   */\n  dup6\n    /* \"#utility.yul\":9623:9641   */\n  add\n    /* \"#utility.yul\":9610:9641   */\n  swap5\n  pop\n    /* \"#utility.yul\":9484:9488   */\n  0x20\n    /* \"#utility.yul\":9481:9482   */\n  dup2\n    /* \"#utility.yul\":9477:9489   */\n  add\n    /* \"#utility.yul\":9472:9489   */\n  swap1\n  pop\n    /* \"#utility.yul\":9447:9655   */\n  jump(tag_185)\ntag_187:\n    /* \"#utility.yul\":9683:9689   */\n  dup7\n    /* \"#utility.yul\":9674:9681   */\n  dup4\n    /* \"#utility.yul\":9671:9690   */\n  lt\n    /* \"#utility.yul\":9668:9847   */\n  iszero\n  tag_188\n  jumpi\n    /* \"#utility.yul\":9741:9750   */\n  dup5\n    /* \"#utility.yul\":9736:9739   */\n  dup10\n    /* \"#utility.yul\":9732:9751   */\n  add\n    /* \"#utility.yul\":9726:9752   */\n  mload\n    /* \"#utility.yul\":9784:9832   */\n  tag_189\n    /* \"#utility.yul\":9826:9830   */\n  0x1f\n    /* \"#utility.yul\":9818:9824   */\n  dup10\n    /* \"#utility.yul\":9814:9831   */\n  and\n    /* \"#utility.yul\":9803:9812   */\n  dup3\n    /* \"#utility.yul\":9784:9832   */\n  tag_70\n  jump\t// in\ntag_189:\n    /* \"#utility.yul\":9776:9782   */\n  dup4\n    /* \"#utility.yul\":9769:9833   */\n  sstore\n    /* \"#utility.yul\":9691:9847   */\n  pop\n    /* \"#utility.yul\":9668:9847   */\ntag_188:\n    /* \"#utility.yul\":9893:9894   */\n  0x01\n    /* \"#utility.yul\":9889:9890   */\n  0x02\n    /* \"#utility.yul\":9881:9887   */\n  dup9\n    /* \"#utility.yul\":9877:9891   */\n  mul\n    /* \"#utility.yul\":9873:9895   */\n  add\n    /* \"#utility.yul\":9867:9871   */\n  dup9\n    /* \"#utility.yul\":9860:9896   */\n  sstore\n    /* \"#utility.yul\":9295:9906   */\n  pop\n  pop\n  pop\n    /* \"#utility.yul\":9258:10145   */\ntag_180:\n  pop\n    /* \"#utility.yul\":8848:10151   */\n  pop\n  pop\n  pop\n    /* \"#utility.yul\":8756:10151   */\n  pop\n  pop\n  jump\t// out\n    /* \"contracts/Vote.sol\":137:1055  contract Vote {... */\ntag_14:\n  dataSize(sub_0)\n  dup1\n  dataOffset(sub_0)\n  0x00\n  codecopy\n  0x00\n  return\nstop\n\nsub_0: assembly {\n        /* \"contracts/Vote.sol\":137:1055  contract Vote {... */\n      mstore(0x40, 0x80)\n      callvalue\n      dup1\n      iszero\n      tag_1\n      jumpi\n      0x00\n      dup1\n      revert\n    tag_1:\n      pop\n      jumpi(tag_2, lt(calldatasize, 0x04))\n      shr(0xe0, calldataload(0x00))\n      dup1\n      0x0121b93f\n      eq\n      tag_3\n      jumpi\n      dup1\n      0x0dc96015\n      eq\n      tag_4\n      jumpi\n      dup1\n      0xcc2ee196\n      eq\n      tag_5\n      jumpi\n      dup1\n      0xfc36e15b\n      eq\n      tag_6\n      jumpi\n    tag_2:\n      0x00\n      dup1\n      revert\n        /* \"contracts/Vote.sol\":515:788  function vote(uint256 option) public {... */\n    tag_3:\n      tag_7\n      0x04\n      dup1\n      calldatasize\n      sub\n      dup2\n      add\n      swap1\n      tag_8\n      swap2\n      swap1\n      tag_9\n      jump\t// in\n    tag_8:\n      tag_10\n      jump\t// in\n    tag_7:\n      stop\n        /* \"contracts/Vote.sol\":962:1052  function getVotes() public view returns (uint256[] memory) {... */\n    tag_4:\n      tag_11\n      tag_12\n      jump\t// in\n    tag_11:\n      mload(0x40)\n      tag_13\n      swap2\n      swap1\n      tag_14\n      jump\t// in\n    tag_13:\n      mload(0x40)\n      dup1\n      swap2\n      sub\n      swap1\n      return\n        /* \"contracts/Vote.sol\":861:954  function getOptions() public view returns (string[] memory) {... */\n    tag_5:\n      tag_15\n      tag_16\n      jump\t// in\n    tag_15:\n      mload(0x40)\n      tag_17\n      swap2\n      swap1\n      tag_18\n      jump\t// in\n    tag_17:\n      mload(0x40)\n      dup1\n      swap2\n      sub\n      swap1\n      return\n        /* \"contracts/Vote.sol\":796:853  function vote(string memory optionName) public {... */\n    tag_6:\n      tag_19\n      0x04\n      dup1\n      calldatasize\n      sub\n      dup2\n      add\n      swap1\n      tag_20\n      swap2\n      swap1\n      tag_21\n      jump\t// in\n    tag_20:\n      tag_22\n      jump\t// in\n    tag_19:\n      stop\n        /* \"contracts/Vote.sol\":515:788  function vote(uint256 option) public {... */\n    tag_10:\n        /* \"contracts/Vote.sol\":576:582  option */\n      dup1\n        /* \"contracts/Vote.sol\":571:572  0 */\n      0x00\n        /* \"contracts/Vote.sol\":571:582  0 <= option */\n      gt\n      iszero\n        /* \"contracts/Vote.sol\":571:609  0 <= option && option < options.length */\n      dup1\n      iszero\n      tag_24\n      jumpi\n      pop\n        /* \"contracts/Vote.sol\":595:602  options */\n      0x01\n        /* \"contracts/Vote.sol\":595:609  options.length */\n      dup1\n      sload\n      swap1\n      pop\n        /* \"contracts/Vote.sol\":586:592  option */\n      dup2\n        /* \"contracts/Vote.sol\":586:609  option < options.length */\n      lt\n        /* \"contracts/Vote.sol\":571:609  0 <= option && option < options.length */\n    tag_24:\n        /* \"contracts/Vote.sol\":563:628  require(0 <= option && option < options.length, \"Invalid option\") */\n      tag_25\n      jumpi\n      mload(0x40)\n      0x08c379a000000000000000000000000000000000000000000000000000000000\n      dup2\n      mstore\n      0x04\n      add\n      tag_26\n      swap1\n      tag_27\n      jump\t// in\n    tag_26:\n      mload(0x40)\n      dup1\n      swap2\n      sub\n      swap1\n      revert\n    tag_25:\n        /* \"contracts/Vote.sol\":648:656  hasVoted */\n      0x02\n        /* \"contracts/Vote.sol\":648:668  hasVoted[msg.sender] */\n      0x00\n        /* \"contracts/Vote.sol\":657:667  msg.sender */\n      caller\n        /* \"contracts/Vote.sol\":648:668  hasVoted[msg.sender] */\n      0xffffffffffffffffffffffffffffffffffffffff\n      and\n      0xffffffffffffffffffffffffffffffffffffffff\n      and\n      dup2\n      mstore\n      0x20\n      add\n      swap1\n      dup2\n      mstore\n      0x20\n      add\n      0x00\n      keccak256\n      0x00\n      swap1\n      sload\n      swap1\n      0x0100\n      exp\n      swap1\n      div\n      0xff\n      and\n        /* \"contracts/Vote.sol\":647:668  !hasVoted[msg.sender] */\n      iszero\n        /* \"contracts/Vote.sol\":639:698  require(!hasVoted[msg.sender], \"Account has already voted\") */\n      tag_28\n      jumpi\n      mload(0x40)\n      0x08c379a000000000000000000000000000000000000000000000000000000000\n      dup2\n      mstore\n      0x04\n      add\n      tag_29\n      swap1\n      tag_30\n      jump\t// in\n    tag_29:\n      mload(0x40)\n      dup1\n      swap2\n      sub\n      swap1\n      revert\n    tag_28:\n        /* \"contracts/Vote.sol\":741:742  1 */\n      0x01\n        /* \"contracts/Vote.sol\":725:730  votes */\n      0x00\n        /* \"contracts/Vote.sol\":731:737  option */\n      dup3\n        /* \"contracts/Vote.sol\":725:738  votes[option] */\n      dup2\n      sload\n      dup2\n      lt\n      tag_31\n      jumpi\n      tag_32\n      tag_33\n      jump\t// in\n    tag_32:\n    tag_31:\n      swap1\n      0x00\n      mstore\n      keccak256(0x00, 0x20)\n      add\n      sload\n        /* \"contracts/Vote.sol\":725:742  votes[option] + 1 */\n      tag_35\n      swap2\n      swap1\n      tag_36\n      jump\t// in\n    tag_35:\n        /* \"contracts/Vote.sol\":709:714  votes */\n      0x00\n        /* \"contracts/Vote.sol\":715:721  option */\n      dup3\n        /* \"contracts/Vote.sol\":709:722  votes[option] */\n      dup2\n      sload\n      dup2\n      lt\n      tag_37\n      jumpi\n      tag_38\n      tag_33\n      jump\t// in\n    tag_38:\n    tag_37:\n      swap1\n      0x00\n      mstore\n      keccak256(0x00, 0x20)\n      add\n        /* \"contracts/Vote.sol\":709:742  votes[option] = votes[option] + 1 */\n      dup2\n      swap1\n      sstore\n      pop\n        /* \"contracts/Vote.sol\":776:780  true */\n      0x01\n        /* \"contracts/Vote.sol\":753:761  hasVoted */\n      0x02\n        /* \"contracts/Vote.sol\":753:773  hasVoted[msg.sender] */\n      0x00\n        /* \"contracts/Vote.sol\":762:772  msg.sender */\n      caller\n        /* \"contracts/Vote.sol\":753:773  hasVoted[msg.sender] */\n      0xffffffffffffffffffffffffffffffffffffffff\n      and\n      0xffffffffffffffffffffffffffffffffffffffff\n      and\n      dup2\n      mstore\n      0x20\n      add\n      swap1\n      dup2\n      mstore\n      0x20\n      add\n      0x00\n      keccak256\n      0x00\n        /* \"contracts/Vote.sol\":753:780  hasVoted[msg.sender] = true */\n      0x0100\n      exp\n      dup2\n      sload\n      dup2\n      0xff\n      mul\n      not\n      and\n      swap1\n      dup4\n      iszero\n      iszero\n      mul\n      or\n      swap1\n      sstore\n      pop\n        /* \"contracts/Vote.sol\":515:788  function vote(uint256 option) public {... */\n      pop\n      jump\t// out\n        /* \"contracts/Vote.sol\":962:1052  function getVotes() public view returns (uint256[] memory) {... */\n    tag_12:\n        /* \"contracts/Vote.sol\":1003:1019  uint256[] memory */\n      0x60\n        /* \"contracts/Vote.sol\":1039:1044  votes */\n      0x00\n        /* \"contracts/Vote.sol\":1032:1044  return votes */\n      dup1\n      sload\n      dup1\n      0x20\n      mul\n      0x20\n      add\n      mload(0x40)\n      swap1\n      dup2\n      add\n      0x40\n      mstore\n      dup1\n      swap3\n      swap2\n      swap1\n      dup2\n      dup2\n      mstore\n      0x20\n      add\n      dup3\n      dup1\n      sload\n      dup1\n      iszero\n      tag_41\n      jumpi\n      0x20\n      mul\n      dup3\n      add\n      swap2\n      swap1\n      0x00\n      mstore\n      keccak256(0x00, 0x20)\n      swap1\n    tag_42:\n      dup2\n      sload\n      dup2\n      mstore\n      0x20\n      add\n      swap1\n      0x01\n      add\n      swap1\n      dup1\n      dup4\n      gt\n      tag_42\n      jumpi\n    tag_41:\n      pop\n      pop\n      pop\n      pop\n      pop\n      swap1\n      pop\n        /* \"contracts/Vote.sol\":962:1052  function getVotes() public view returns (uint256[] memory) {... */\n      swap1\n      jump\t// out\n        /* \"contracts/Vote.sol\":861:954  function getOptions() public view returns (string[] memory) {... */\n    tag_16:\n        /* \"contracts/Vote.sol\":904:919  string[] memory */\n      0x60\n        /* \"contracts/Vote.sol\":939:946  options */\n      0x01\n        /* \"contracts/Vote.sol\":932:946  return options */\n      dup1\n      sload\n      dup1\n      0x20\n      mul\n      0x20\n      add\n      mload(0x40)\n      swap1\n      dup2\n      add\n      0x40\n      mstore\n      dup1\n      swap3\n      swap2\n      swap1\n      dup2\n      dup2\n      mstore\n      0x20\n      add\n      0x00\n      swap1\n    tag_44:\n      dup3\n      dup3\n      lt\n      iszero\n      tag_45\n      jumpi\n      dup4\n      dup3\n      swap1\n      0x00\n      mstore\n      keccak256(0x00, 0x20)\n      add\n      dup1\n      sload\n      tag_47\n      swap1\n      tag_48\n      jump\t// in\n    tag_47:\n      dup1\n      0x1f\n      add\n      0x20\n      dup1\n      swap2\n      div\n      mul\n      0x20\n      add\n      mload(0x40)\n      swap1\n      dup2\n      add\n      0x40\n      mstore\n      dup1\n      swap3\n      swap2\n      swap1\n      dup2\n      dup2\n      mstore\n      0x20\n      add\n      dup3\n      dup1\n      sload\n      tag_49\n      swap1\n      tag_48\n      jump\t// in\n    tag_49:\n      dup1\n      iszero\n      tag_50\n      jumpi\n      dup1\n      0x1f\n      lt\n      tag_51\n      jumpi\n      0x0100\n      dup1\n      dup4\n      sload\n      div\n      mul\n      dup4\n      mstore\n      swap2\n      0x20\n      add\n      swap2\n      jump(tag_50)\n    tag_51:\n      dup3\n      add\n      swap2\n      swap1\n      0x00\n      mstore\n      keccak256(0x00, 0x20)\n      swap1\n    tag_52:\n      dup2\n      sload\n      dup2\n      mstore\n      swap1\n      0x01\n      add\n      swap1\n      0x20\n      add\n      dup1\n      dup4\n      gt\n      tag_52\n      jumpi\n      dup3\n      swap1\n      sub\n      0x1f\n      and\n      dup3\n      add\n      swap2\n    tag_50:\n      pop\n      pop\n      pop\n      pop\n      pop\n      dup2\n      mstore\n      0x20\n      add\n      swap1\n      0x01\n      add\n      swap1\n      jump(tag_44)\n    tag_45:\n      pop\n      pop\n      pop\n      pop\n      swap1\n      pop\n        /* \"contracts/Vote.sol\":861:954  function getOptions() public view returns (string[] memory) {... */\n      swap1\n      jump\t// out\n        /* \"contracts/Vote.sol\":796:853  function vote(string memory optionName) public {... */\n    tag_22:\n      pop\n      jump\t// out\n        /* \"#utility.yul\":7:82   */\n    tag_54:\n        /* \"#utility.yul\":40:46   */\n      0x00\n        /* \"#utility.yul\":73:75   */\n      0x40\n        /* \"#utility.yul\":67:76   */\n      mload\n        /* \"#utility.yul\":57:76   */\n      swap1\n      pop\n        /* \"#utility.yul\":7:82   */\n      swap1\n      jump\t// out\n        /* \"#utility.yul\":88:205   */\n    tag_55:\n        /* \"#utility.yul\":197:198   */\n      0x00\n        /* \"#utility.yul\":194:195   */\n      dup1\n        /* \"#utility.yul\":187:199   */\n      revert\n        /* \"#utility.yul\":211:328   */\n    tag_56:\n        /* \"#utility.yul\":320:321   */\n      0x00\n        /* \"#utility.yul\":317:318   */\n      dup1\n        /* \"#utility.yul\":310:322   */\n      revert\n        /* \"#utility.yul\":334:411   */\n    tag_57:\n        /* \"#utility.yul\":371:378   */\n      0x00\n        /* \"#utility.yul\":400:405   */\n      dup2\n        /* \"#utility.yul\":389:405   */\n      swap1\n      pop\n        /* \"#utility.yul\":334:411   */\n      swap2\n      swap1\n      pop\n      jump\t// out\n        /* \"#utility.yul\":417:539   */\n    tag_58:\n        /* \"#utility.yul\":490:514   */\n      tag_100\n        /* \"#utility.yul\":508:513   */\n      dup2\n        /* \"#utility.yul\":490:514   */\n      tag_57\n      jump\t// in\n    tag_100:\n        /* \"#utility.yul\":483:488   */\n      dup2\n        /* \"#utility.yul\":480:515   */\n      eq\n        /* \"#utility.yul\":470:533   */\n      tag_101\n      jumpi\n        /* \"#utility.yul\":529:530   */\n      0x00\n        /* \"#utility.yul\":526:527   */\n      dup1\n        /* \"#utility.yul\":519:531   */\n      revert\n        /* \"#utility.yul\":470:533   */\n    tag_101:\n        /* \"#utility.yul\":417:539   */\n      pop\n      jump\t// out\n        /* \"#utility.yul\":545:684   */\n    tag_59:\n        /* \"#utility.yul\":591:596   */\n      0x00\n        /* \"#utility.yul\":629:635   */\n      dup2\n        /* \"#utility.yul\":616:636   */\n      calldataload\n        /* \"#utility.yul\":607:636   */\n      swap1\n      pop\n        /* \"#utility.yul\":645:678   */\n      tag_103\n        /* \"#utility.yul\":672:677   */\n      dup2\n        /* \"#utility.yul\":645:678   */\n      tag_58\n      jump\t// in\n    tag_103:\n        /* \"#utility.yul\":545:684   */\n      swap3\n      swap2\n      pop\n      pop\n      jump\t// out\n        /* \"#utility.yul\":690:1019   */\n    tag_9:\n        /* \"#utility.yul\":749:755   */\n      0x00\n        /* \"#utility.yul\":798:800   */\n      0x20\n        /* \"#utility.yul\":786:795   */\n      dup3\n        /* \"#utility.yul\":777:784   */\n      dup5\n        /* \"#utility.yul\":773:796   */\n      sub\n        /* \"#utility.yul\":769:801   */\n      slt\n        /* \"#utility.yul\":766:885   */\n      iszero\n      tag_105\n      jumpi\n        /* \"#utility.yul\":804:883   */\n      tag_106\n      tag_55\n      jump\t// in\n    tag_106:\n        /* \"#utility.yul\":766:885   */\n    tag_105:\n        /* \"#utility.yul\":924:925   */\n      0x00\n        /* \"#utility.yul\":949:1002   */\n      tag_107\n        /* \"#utility.yul\":994:1001   */\n      dup5\n        /* \"#utility.yul\":985:991   */\n      dup3\n        /* \"#utility.yul\":974:983   */\n      dup6\n        /* \"#utility.yul\":970:992   */\n      add\n        /* \"#utility.yul\":949:1002   */\n      tag_59\n      jump\t// in\n    tag_107:\n        /* \"#utility.yul\":939:1002   */\n      swap2\n      pop\n        /* \"#utility.yul\":895:1012   */\n      pop\n        /* \"#utility.yul\":690:1019   */\n      swap3\n      swap2\n      pop\n      pop\n      jump\t// out\n        /* \"#utility.yul\":1025:1139   */\n    tag_60:\n        /* \"#utility.yul\":1092:1098   */\n      0x00\n        /* \"#utility.yul\":1126:1131   */\n      dup2\n        /* \"#utility.yul\":1120:1132   */\n      mload\n        /* \"#utility.yul\":1110:1132   */\n      swap1\n      pop\n        /* \"#utility.yul\":1025:1139   */\n      swap2\n      swap1\n      pop\n      jump\t// out\n        /* \"#utility.yul\":1145:1329   */\n    tag_61:\n        /* \"#utility.yul\":1244:1255   */\n      0x00\n        /* \"#utility.yul\":1278:1284   */\n      dup3\n        /* \"#utility.yul\":1273:1276   */\n      dup3\n        /* \"#utility.yul\":1266:1285   */\n      mstore\n        /* \"#utility.yul\":1318:1322   */\n      0x20\n        /* \"#utility.yul\":1313:1316   */\n      dup3\n        /* \"#utility.yul\":1309:1323   */\n      add\n        /* \"#utility.yul\":1294:1323   */\n      swap1\n      pop\n        /* \"#utility.yul\":1145:1329   */\n      swap3\n      swap2\n      pop\n      pop\n      jump\t// out\n        /* \"#utility.yul\":1335:1467   */\n    tag_62:\n        /* \"#utility.yul\":1402:1406   */\n      0x00\n        /* \"#utility.yul\":1425:1428   */\n      dup2\n        /* \"#utility.yul\":1417:1428   */\n      swap1\n      pop\n        /* \"#utility.yul\":1455:1459   */\n      0x20\n        /* \"#utility.yul\":1450:1453   */\n      dup3\n        /* \"#utility.yul\":1446:1460   */\n      add\n        /* \"#utility.yul\":1438:1460   */\n      swap1\n      pop\n        /* \"#utility.yul\":1335:1467   */\n      swap2\n      swap1\n      pop\n      jump\t// out\n        /* \"#utility.yul\":1473:1581   */\n    tag_63:\n        /* \"#utility.yul\":1550:1574   */\n      tag_112\n        /* \"#utility.yul\":1568:1573   */\n      dup2\n        /* \"#utility.yul\":1550:1574   */\n      tag_57\n      jump\t// in\n    tag_112:\n        /* \"#utility.yul\":1545:1548   */\n      dup3\n        /* \"#utility.yul\":1538:1575   */\n      mstore\n        /* \"#utility.yul\":1473:1581   */\n      pop\n      pop\n      jump\t// out\n        /* \"#utility.yul\":1587:1766   */\n    tag_64:\n        /* \"#utility.yul\":1656:1666   */\n      0x00\n        /* \"#utility.yul\":1677:1723   */\n      tag_114\n        /* \"#utility.yul\":1719:1722   */\n      dup4\n        /* \"#utility.yul\":1711:1717   */\n      dup4\n        /* \"#utility.yul\":1677:1723   */\n      tag_63\n      jump\t// in\n    tag_114:\n        /* \"#utility.yul\":1755:1759   */\n      0x20\n        /* \"#utility.yul\":1750:1753   */\n      dup4\n        /* \"#utility.yul\":1746:1760   */\n      add\n        /* \"#utility.yul\":1732:1760   */\n      swap1\n      pop\n        /* \"#utility.yul\":1587:1766   */\n      swap3\n      swap2\n      pop\n      pop\n      jump\t// out\n        /* \"#utility.yul\":1772:1885   */\n    tag_65:\n        /* \"#utility.yul\":1842:1846   */\n      0x00\n        /* \"#utility.yul\":1874:1878   */\n      0x20\n        /* \"#utility.yul\":1869:1872   */\n      dup3\n        /* \"#utility.yul\":1865:1879   */\n      add\n        /* \"#utility.yul\":1857:1879   */\n      swap1\n      pop\n        /* \"#utility.yul\":1772:1885   */\n      swap2\n      swap1\n      pop\n      jump\t// out\n        /* \"#utility.yul\":1921:2653   */\n    tag_66:\n        /* \"#utility.yul\":2040:2043   */\n      0x00\n        /* \"#utility.yul\":2069:2123   */\n      tag_117\n        /* \"#utility.yul\":2117:2122   */\n      dup3\n        /* \"#utility.yul\":2069:2123   */\n      tag_60\n      jump\t// in\n    tag_117:\n        /* \"#utility.yul\":2139:2225   */\n      tag_118\n        /* \"#utility.yul\":2218:2224   */\n      dup2\n        /* \"#utility.yul\":2213:2216   */\n      dup6\n        /* \"#utility.yul\":2139:2225   */\n      tag_61\n      jump\t// in\n    tag_118:\n        /* \"#utility.yul\":2132:2225   */\n      swap4\n      pop\n        /* \"#utility.yul\":2249:2305   */\n      tag_119\n        /* \"#utility.yul\":2299:2304   */\n      dup4\n        /* \"#utility.yul\":2249:2305   */\n      tag_62\n      jump\t// in\n    tag_119:\n        /* \"#utility.yul\":2328:2335   */\n      dup1\n        /* \"#utility.yul\":2359:2360   */\n      0x00\n        /* \"#utility.yul\":2344:2628   */\n    tag_120:\n        /* \"#utility.yul\":2369:2375   */\n      dup4\n        /* \"#utility.yul\":2366:2367   */\n      dup2\n        /* \"#utility.yul\":2363:2376   */\n      lt\n        /* \"#utility.yul\":2344:2628   */\n      iszero\n      tag_122\n      jumpi\n        /* \"#utility.yul\":2445:2451   */\n      dup2\n        /* \"#utility.yul\":2439:2452   */\n      mload\n        /* \"#utility.yul\":2472:2535   */\n      tag_123\n        /* \"#utility.yul\":2531:2534   */\n      dup9\n        /* \"#utility.yul\":2516:2529   */\n      dup3\n        /* \"#utility.yul\":2472:2535   */\n      tag_64\n      jump\t// in\n    tag_123:\n        /* \"#utility.yul\":2465:2535   */\n      swap8\n      pop\n        /* \"#utility.yul\":2558:2618   */\n      tag_124\n        /* \"#utility.yul\":2611:2617   */\n      dup4\n        /* \"#utility.yul\":2558:2618   */\n      tag_65\n      jump\t// in\n    tag_124:\n        /* \"#utility.yul\":2548:2618   */\n      swap3\n      pop\n        /* \"#utility.yul\":2404:2628   */\n      pop\n        /* \"#utility.yul\":2391:2392   */\n      0x01\n        /* \"#utility.yul\":2388:2389   */\n      dup2\n        /* \"#utility.yul\":2384:2393   */\n      add\n        /* \"#utility.yul\":2379:2393   */\n      swap1\n      pop\n        /* \"#utility.yul\":2344:2628   */\n      jump(tag_120)\n    tag_122:\n        /* \"#utility.yul\":2348:2362   */\n      pop\n        /* \"#utility.yul\":2644:2647   */\n      dup6\n        /* \"#utility.yul\":2637:2647   */\n      swap4\n      pop\n        /* \"#utility.yul\":2045:2653   */\n      pop\n      pop\n      pop\n        /* \"#utility.yul\":1921:2653   */\n      swap3\n      swap2\n      pop\n      pop\n      jump\t// out\n        /* \"#utility.yul\":2659:3032   */\n    tag_14:\n        /* \"#utility.yul\":2802:2806   */\n      0x00\n        /* \"#utility.yul\":2840:2842   */\n      0x20\n        /* \"#utility.yul\":2829:2838   */\n      dup3\n        /* \"#utility.yul\":2825:2843   */\n      add\n        /* \"#utility.yul\":2817:2843   */\n      swap1\n      pop\n        /* \"#utility.yul\":2889:2898   */\n      dup2\n        /* \"#utility.yul\":2883:2887   */\n      dup2\n        /* \"#utility.yul\":2879:2899   */\n      sub\n        /* \"#utility.yul\":2875:2876   */\n      0x00\n        /* \"#utility.yul\":2864:2873   */\n      dup4\n        /* \"#utility.yul\":2860:2877   */\n      add\n        /* \"#utility.yul\":2853:2900   */\n      mstore\n        /* \"#utility.yul\":2917:3025   */\n      tag_126\n        /* \"#utility.yul\":3020:3024   */\n      dup2\n        /* \"#utility.yul\":3011:3017   */\n      dup5\n        /* \"#utility.yul\":2917:3025   */\n      tag_66\n      jump\t// in\n    tag_126:\n        /* \"#utility.yul\":2909:3025   */\n      swap1\n      pop\n        /* \"#utility.yul\":2659:3032   */\n      swap3\n      swap2\n      pop\n      pop\n      jump\t// out\n        /* \"#utility.yul\":3038:3162   */\n    tag_67:\n        /* \"#utility.yul\":3115:3121   */\n      0x00\n        /* \"#utility.yul\":3149:3154   */\n      dup2\n        /* \"#utility.yul\":3143:3155   */\n      mload\n        /* \"#utility.yul\":3133:3155   */\n      swap1\n      pop\n        /* \"#utility.yul\":3038:3162   */\n      swap2\n      swap1\n      pop\n      jump\t// out\n        /* \"#utility.yul\":3168:3362   */\n    tag_68:\n        /* \"#utility.yul\":3277:3288   */\n      0x00\n        /* \"#utility.yul\":3311:3317   */\n      dup3\n        /* \"#utility.yul\":3306:3309   */\n      dup3\n        /* \"#utility.yul\":3299:3318   */\n      mstore\n        /* \"#utility.yul\":3351:3355   */\n      0x20\n        /* \"#utility.yul\":3346:3349   */\n      dup3\n        /* \"#utility.yul\":3342:3356   */\n      add\n        /* \"#utility.yul\":3327:3356   */\n      swap1\n      pop\n        /* \"#utility.yul\":3168:3362   */\n      swap3\n      swap2\n      pop\n      pop\n      jump\t// out\n        /* \"#utility.yul\":3368:3510   */\n    tag_69:\n        /* \"#utility.yul\":3445:3449   */\n      0x00\n        /* \"#utility.yul\":3468:3471   */\n      dup2\n        /* \"#utility.yul\":3460:3471   */\n      swap1\n      pop\n        /* \"#utility.yul\":3498:3502   */\n      0x20\n        /* \"#utility.yul\":3493:3496   */\n      dup3\n        /* \"#utility.yul\":3489:3503   */\n      add\n        /* \"#utility.yul\":3481:3503   */\n      swap1\n      pop\n        /* \"#utility.yul\":3368:3510   */\n      swap2\n      swap1\n      pop\n      jump\t// out\n        /* \"#utility.yul\":3516:3615   */\n    tag_70:\n        /* \"#utility.yul\":3568:3574   */\n      0x00\n        /* \"#utility.yul\":3602:3607   */\n      dup2\n        /* \"#utility.yul\":3596:3608   */\n      mload\n        /* \"#utility.yul\":3586:3608   */\n      swap1\n      pop\n        /* \"#utility.yul\":3516:3615   */\n      swap2\n      swap1\n      pop\n      jump\t// out\n        /* \"#utility.yul\":3621:3780   */\n    tag_71:\n        /* \"#utility.yul\":3695:3706   */\n      0x00\n        /* \"#utility.yul\":3729:3735   */\n      dup3\n        /* \"#utility.yul\":3724:3727   */\n      dup3\n        /* \"#utility.yul\":3717:3736   */\n      mstore\n        /* \"#utility.yul\":3769:3773   */\n      0x20\n        /* \"#utility.yul\":3764:3767   */\n      dup3\n        /* \"#utility.yul\":3760:3774   */\n      add\n        /* \"#utility.yul\":3745:3774   */\n      swap1\n      pop\n        /* \"#utility.yul\":3621:3780   */\n      swap3\n      swap2\n      pop\n      pop\n      jump\t// out\n        /* \"#utility.yul\":3786:4032   */\n    tag_72:\n        /* \"#utility.yul\":3867:3868   */\n      0x00\n        /* \"#utility.yul\":3877:3990   */\n    tag_133:\n        /* \"#utility.yul\":3891:3897   */\n      dup4\n        /* \"#utility.yul\":3888:3889   */\n      dup2\n        /* \"#utility.yul\":3885:3898   */\n      lt\n        /* \"#utility.yul\":3877:3990   */\n      iszero\n      tag_135\n      jumpi\n        /* \"#utility.yul\":3976:3977   */\n      dup1\n        /* \"#utility.yul\":3971:3974   */\n      dup3\n        /* \"#utility.yul\":3967:3978   */\n      add\n        /* \"#utility.yul\":3961:3979   */\n      mload\n        /* \"#utility.yul\":3957:3958   */\n      dup2\n        /* \"#utility.yul\":3952:3955   */\n      dup5\n        /* \"#utility.yul\":3948:3959   */\n      add\n        /* \"#utility.yul\":3941:3980   */\n      mstore\n        /* \"#utility.yul\":3913:3915   */\n      0x20\n        /* \"#utility.yul\":3910:3911   */\n      dup2\n        /* \"#utility.yul\":3906:3916   */\n      add\n        /* \"#utility.yul\":3901:3916   */\n      swap1\n      pop\n        /* \"#utility.yul\":3877:3990   */\n      jump(tag_133)\n    tag_135:\n        /* \"#utility.yul\":4024:4025   */\n      0x00\n        /* \"#utility.yul\":4015:4021   */\n      dup5\n        /* \"#utility.yul\":4010:4013   */\n      dup5\n        /* \"#utility.yul\":4006:4022   */\n      add\n        /* \"#utility.yul\":3999:4026   */\n      mstore\n        /* \"#utility.yul\":3848:4032   */\n      pop\n        /* \"#utility.yul\":3786:4032   */\n      pop\n      pop\n      pop\n      jump\t// out\n        /* \"#utility.yul\":4038:4140   */\n    tag_73:\n        /* \"#utility.yul\":4079:4085   */\n      0x00\n        /* \"#utility.yul\":4130:4132   */\n      0x1f\n        /* \"#utility.yul\":4126:4133   */\n      not\n        /* \"#utility.yul\":4121:4123   */\n      0x1f\n        /* \"#utility.yul\":4114:4119   */\n      dup4\n        /* \"#utility.yul\":4110:4124   */\n      add\n        /* \"#utility.yul\":4106:4134   */\n      and\n        /* \"#utility.yul\":4096:4134   */\n      swap1\n      pop\n        /* \"#utility.yul\":4038:4140   */\n      swap2\n      swap1\n      pop\n      jump\t// out\n        /* \"#utility.yul\":4146:4503   */\n    tag_74:\n        /* \"#utility.yul\":4224:4227   */\n      0x00\n        /* \"#utility.yul\":4252:4291   */\n      tag_138\n        /* \"#utility.yul\":4285:4290   */\n      dup3\n        /* \"#utility.yul\":4252:4291   */\n      tag_70\n      jump\t// in\n    tag_138:\n        /* \"#utility.yul\":4307:4368   */\n      tag_139\n        /* \"#utility.yul\":4361:4367   */\n      dup2\n        /* \"#utility.yul\":4356:4359   */\n      dup6\n        /* \"#utility.yul\":4307:4368   */\n      tag_71\n      jump\t// in\n    tag_139:\n        /* \"#utility.yul\":4300:4368   */\n      swap4\n      pop\n        /* \"#utility.yul\":4377:4442   */\n      tag_140\n        /* \"#utility.yul\":4435:4441   */\n      dup2\n        /* \"#utility.yul\":4430:4433   */\n      dup6\n        /* \"#utility.yul\":4423:4427   */\n      0x20\n        /* \"#utility.yul\":4416:4421   */\n      dup7\n        /* \"#utility.yul\":4412:4428   */\n      add\n        /* \"#utility.yul\":4377:4442   */\n      tag_72\n      jump\t// in\n    tag_140:\n        /* \"#utility.yul\":4467:4496   */\n      tag_141\n        /* \"#utility.yul\":4489:4495   */\n      dup2\n        /* \"#utility.yul\":4467:4496   */\n      tag_73\n      jump\t// in\n    tag_141:\n        /* \"#utility.yul\":4462:4465   */\n      dup5\n        /* \"#utility.yul\":4458:4497   */\n      add\n        /* \"#utility.yul\":4451:4497   */\n      swap2\n      pop\n        /* \"#utility.yul\":4228:4503   */\n      pop\n        /* \"#utility.yul\":4146:4503   */\n      swap3\n      swap2\n      pop\n      pop\n      jump\t// out\n        /* \"#utility.yul\":4509:4705   */\n    tag_75:\n        /* \"#utility.yul\":4598:4608   */\n      0x00\n        /* \"#utility.yul\":4633:4699   */\n      tag_143\n        /* \"#utility.yul\":4695:4698   */\n      dup4\n        /* \"#utility.yul\":4687:4693   */\n      dup4\n        /* \"#utility.yul\":4633:4699   */\n      tag_74\n      jump\t// in\n    tag_143:\n        /* \"#utility.yul\":4619:4699   */\n      swap1\n      pop\n        /* \"#utility.yul\":4509:4705   */\n      swap3\n      swap2\n      pop\n      pop\n      jump\t// out\n        /* \"#utility.yul\":4711:4834   */\n    tag_76:\n        /* \"#utility.yul\":4791:4795   */\n      0x00\n        /* \"#utility.yul\":4823:4827   */\n      0x20\n        /* \"#utility.yul\":4818:4821   */\n      dup3\n        /* \"#utility.yul\":4814:4828   */\n      add\n        /* \"#utility.yul\":4806:4828   */\n      swap1\n      pop\n        /* \"#utility.yul\":4711:4834   */\n      swap2\n      swap1\n      pop\n      jump\t// out\n        /* \"#utility.yul\":4868:5859   */\n    tag_77:\n        /* \"#utility.yul\":5007:5010   */\n      0x00\n        /* \"#utility.yul\":5036:5100   */\n      tag_146\n        /* \"#utility.yul\":5094:5099   */\n      dup3\n        /* \"#utility.yul\":5036:5100   */\n      tag_67\n      jump\t// in\n    tag_146:\n        /* \"#utility.yul\":5116:5212   */\n      tag_147\n        /* \"#utility.yul\":5205:5211   */\n      dup2\n        /* \"#utility.yul\":5200:5203   */\n      dup6\n        /* \"#utility.yul\":5116:5212   */\n      tag_68\n      jump\t// in\n    tag_147:\n        /* \"#utility.yul\":5109:5212   */\n      swap4\n      pop\n        /* \"#utility.yul\":5238:5241   */\n      dup4\n        /* \"#utility.yul\":5283:5287   */\n      0x20\n        /* \"#utility.yul\":5275:5281   */\n      dup3\n        /* \"#utility.yul\":5271:5288   */\n      mul\n        /* \"#utility.yul\":5266:5269   */\n      dup6\n        /* \"#utility.yul\":5262:5289   */\n      add\n        /* \"#utility.yul\":5313:5379   */\n      tag_148\n        /* \"#utility.yul\":5373:5378   */\n      dup6\n        /* \"#utility.yul\":5313:5379   */\n      tag_69\n      jump\t// in\n    tag_148:\n        /* \"#utility.yul\":5402:5409   */\n      dup1\n        /* \"#utility.yul\":5433:5434   */\n      0x00\n        /* \"#utility.yul\":5418:5814   */\n    tag_149:\n        /* \"#utility.yul\":5443:5449   */\n      dup6\n        /* \"#utility.yul\":5440:5441   */\n      dup2\n        /* \"#utility.yul\":5437:5450   */\n      lt\n        /* \"#utility.yul\":5418:5814   */\n      iszero\n      tag_151\n      jumpi\n        /* \"#utility.yul\":5514:5523   */\n      dup5\n        /* \"#utility.yul\":5508:5512   */\n      dup5\n        /* \"#utility.yul\":5504:5524   */\n      sub\n        /* \"#utility.yul\":5499:5502   */\n      dup10\n        /* \"#utility.yul\":5492:5525   */\n      mstore\n        /* \"#utility.yul\":5565:5571   */\n      dup2\n        /* \"#utility.yul\":5559:5572   */\n      mload\n        /* \"#utility.yul\":5593:5677   */\n      tag_152\n        /* \"#utility.yul\":5672:5676   */\n      dup6\n        /* \"#utility.yul\":5657:5670   */\n      dup3\n        /* \"#utility.yul\":5593:5677   */\n      tag_75\n      jump\t// in\n    tag_152:\n        /* \"#utility.yul\":5585:5677   */\n      swap5\n      pop\n        /* \"#utility.yul\":5700:5770   */\n      tag_153\n        /* \"#utility.yul\":5763:5769   */\n      dup4\n        /* \"#utility.yul\":5700:5770   */\n      tag_76\n      jump\t// in\n    tag_153:\n        /* \"#utility.yul\":5690:5770   */\n      swap3\n      pop\n        /* \"#utility.yul\":5799:5803   */\n      0x20\n        /* \"#utility.yul\":5794:5797   */\n      dup11\n        /* \"#utility.yul\":5790:5804   */\n      add\n        /* \"#utility.yul\":5783:5804   */\n      swap10\n      pop\n        /* \"#utility.yul\":5478:5814   */\n      pop\n        /* \"#utility.yul\":5465:5466   */\n      0x01\n        /* \"#utility.yul\":5462:5463   */\n      dup2\n        /* \"#utility.yul\":5458:5467   */\n      add\n        /* \"#utility.yul\":5453:5467   */\n      swap1\n      pop\n        /* \"#utility.yul\":5418:5814   */\n      jump(tag_149)\n    tag_151:\n        /* \"#utility.yul\":5422:5436   */\n      pop\n        /* \"#utility.yul\":5830:5834   */\n      dup3\n        /* \"#utility.yul\":5823:5834   */\n      swap8\n      pop\n        /* \"#utility.yul\":5850:5853   */\n      dup8\n        /* \"#utility.yul\":5843:5853   */\n      swap6\n      pop\n        /* \"#utility.yul\":5012:5859   */\n      pop\n      pop\n      pop\n      pop\n      pop\n        /* \"#utility.yul\":4868:5859   */\n      swap3\n      swap2\n      pop\n      pop\n      jump\t// out\n        /* \"#utility.yul\":5865:6278   */\n    tag_18:\n        /* \"#utility.yul\":6028:6032   */\n      0x00\n        /* \"#utility.yul\":6066:6068   */\n      0x20\n        /* \"#utility.yul\":6055:6064   */\n      dup3\n        /* \"#utility.yul\":6051:6069   */\n      add\n        /* \"#utility.yul\":6043:6069   */\n      swap1\n      pop\n        /* \"#utility.yul\":6115:6124   */\n      dup2\n        /* \"#utility.yul\":6109:6113   */\n      dup2\n        /* \"#utility.yul\":6105:6125   */\n      sub\n        /* \"#utility.yul\":6101:6102   */\n      0x00\n        /* \"#utility.yul\":6090:6099   */\n      dup4\n        /* \"#utility.yul\":6086:6103   */\n      add\n        /* \"#utility.yul\":6079:6126   */\n      mstore\n        /* \"#utility.yul\":6143:6271   */\n      tag_155\n        /* \"#utility.yul\":6266:6270   */\n      dup2\n        /* \"#utility.yul\":6257:6263   */\n      dup5\n        /* \"#utility.yul\":6143:6271   */\n      tag_77\n      jump\t// in\n    tag_155:\n        /* \"#utility.yul\":6135:6271   */\n      swap1\n      pop\n        /* \"#utility.yul\":5865:6278   */\n      swap3\n      swap2\n      pop\n      pop\n      jump\t// out\n        /* \"#utility.yul\":6284:6401   */\n    tag_78:\n        /* \"#utility.yul\":6393:6394   */\n      0x00\n        /* \"#utility.yul\":6390:6391   */\n      dup1\n        /* \"#utility.yul\":6383:6395   */\n      revert\n        /* \"#utility.yul\":6407:6524   */\n    tag_79:\n        /* \"#utility.yul\":6516:6517   */\n      0x00\n        /* \"#utility.yul\":6513:6514   */\n      dup1\n        /* \"#utility.yul\":6506:6518   */\n      revert\n        /* \"#utility.yul\":6530:6710   */\n    tag_80:\n        /* \"#utility.yul\":6578:6655   */\n      0x4e487b7100000000000000000000000000000000000000000000000000000000\n        /* \"#utility.yul\":6575:6576   */\n      0x00\n        /* \"#utility.yul\":6568:6656   */\n      mstore\n        /* \"#utility.yul\":6675:6679   */\n      0x41\n        /* \"#utility.yul\":6672:6673   */\n      0x04\n        /* \"#utility.yul\":6665:6680   */\n      mstore\n        /* \"#utility.yul\":6699:6703   */\n      0x24\n        /* \"#utility.yul\":6696:6697   */\n      0x00\n        /* \"#utility.yul\":6689:6704   */\n      revert\n        /* \"#utility.yul\":6716:6997   */\n    tag_81:\n        /* \"#utility.yul\":6799:6826   */\n      tag_160\n        /* \"#utility.yul\":6821:6825   */\n      dup3\n        /* \"#utility.yul\":6799:6826   */\n      tag_73\n      jump\t// in\n    tag_160:\n        /* \"#utility.yul\":6791:6797   */\n      dup2\n        /* \"#utility.yul\":6787:6827   */\n      add\n        /* \"#utility.yul\":6929:6935   */\n      dup2\n        /* \"#utility.yul\":6917:6927   */\n      dup2\n        /* \"#utility.yul\":6914:6936   */\n      lt\n        /* \"#utility.yul\":6893:6911   */\n      0xffffffffffffffff\n        /* \"#utility.yul\":6881:6891   */\n      dup3\n        /* \"#utility.yul\":6878:6912   */\n      gt\n        /* \"#utility.yul\":6875:6937   */\n      or\n        /* \"#utility.yul\":6872:6960   */\n      iszero\n      tag_161\n      jumpi\n        /* \"#utility.yul\":6940:6958   */\n      tag_162\n      tag_80\n      jump\t// in\n    tag_162:\n        /* \"#utility.yul\":6872:6960   */\n    tag_161:\n        /* \"#utility.yul\":6980:6990   */\n      dup1\n        /* \"#utility.yul\":6976:6978   */\n      0x40\n        /* \"#utility.yul\":6969:6991   */\n      mstore\n        /* \"#utility.yul\":6759:6997   */\n      pop\n        /* \"#utility.yul\":6716:6997   */\n      pop\n      pop\n      jump\t// out\n        /* \"#utility.yul\":7003:7132   */\n    tag_82:\n        /* \"#utility.yul\":7037:7043   */\n      0x00\n        /* \"#utility.yul\":7064:7084   */\n      tag_164\n      tag_54\n      jump\t// in\n    tag_164:\n        /* \"#utility.yul\":7054:7084   */\n      swap1\n      pop\n        /* \"#utility.yul\":7093:7126   */\n      tag_165\n        /* \"#utility.yul\":7121:7125   */\n      dup3\n        /* \"#utility.yul\":7113:7119   */\n      dup3\n        /* \"#utility.yul\":7093:7126   */\n      tag_81\n      jump\t// in\n    tag_165:\n        /* \"#utility.yul\":7003:7132   */\n      swap2\n      swap1\n      pop\n      jump\t// out\n        /* \"#utility.yul\":7138:7446   */\n    tag_83:\n        /* \"#utility.yul\":7200:7204   */\n      0x00\n        /* \"#utility.yul\":7290:7308   */\n      0xffffffffffffffff\n        /* \"#utility.yul\":7282:7288   */\n      dup3\n        /* \"#utility.yul\":7279:7309   */\n      gt\n        /* \"#utility.yul\":7276:7332   */\n      iszero\n      tag_167\n      jumpi\n        /* \"#utility.yul\":7312:7330   */\n      tag_168\n      tag_80\n      jump\t// in\n    tag_168:\n        /* \"#utility.yul\":7276:7332   */\n    tag_167:\n        /* \"#utility.yul\":7350:7379   */\n      tag_169\n        /* \"#utility.yul\":7372:7378   */\n      dup3\n        /* \"#utility.yul\":7350:7379   */\n      tag_73\n      jump\t// in\n    tag_169:\n        /* \"#utility.yul\":7342:7379   */\n      swap1\n      pop\n        /* \"#utility.yul\":7434:7438   */\n      0x20\n        /* \"#utility.yul\":7428:7432   */\n      dup2\n        /* \"#utility.yul\":7424:7439   */\n      add\n        /* \"#utility.yul\":7416:7439   */\n      swap1\n      pop\n        /* \"#utility.yul\":7138:7446   */\n      swap2\n      swap1\n      pop\n      jump\t// out\n        /* \"#utility.yul\":7452:7598   */\n    tag_84:\n        /* \"#utility.yul\":7549:7555   */\n      dup3\n        /* \"#utility.yul\":7544:7547   */\n      dup2\n        /* \"#utility.yul\":7539:7542   */\n      dup4\n        /* \"#utility.yul\":7526:7556   */\n      calldatacopy\n        /* \"#utility.yul\":7590:7591   */\n      0x00\n        /* \"#utility.yul\":7581:7587   */\n      dup4\n        /* \"#utility.yul\":7576:7579   */\n      dup4\n        /* \"#utility.yul\":7572:7588   */\n      add\n        /* \"#utility.yul\":7565:7592   */\n      mstore\n        /* \"#utility.yul\":7452:7598   */\n      pop\n      pop\n      pop\n      jump\t// out\n        /* \"#utility.yul\":7604:8029   */\n    tag_85:\n        /* \"#utility.yul\":7682:7687   */\n      0x00\n        /* \"#utility.yul\":7707:7773   */\n      tag_172\n        /* \"#utility.yul\":7723:7772   */\n      tag_173\n        /* \"#utility.yul\":7765:7771   */\n      dup5\n        /* \"#utility.yul\":7723:7772   */\n      tag_83\n      jump\t// in\n    tag_173:\n        /* \"#utility.yul\":7707:7773   */\n      tag_82\n      jump\t// in\n    tag_172:\n        /* \"#utility.yul\":7698:7773   */\n      swap1\n      pop\n        /* \"#utility.yul\":7796:7802   */\n      dup3\n        /* \"#utility.yul\":7789:7794   */\n      dup2\n        /* \"#utility.yul\":7782:7803   */\n      mstore\n        /* \"#utility.yul\":7834:7838   */\n      0x20\n        /* \"#utility.yul\":7827:7832   */\n      dup2\n        /* \"#utility.yul\":7823:7839   */\n      add\n        /* \"#utility.yul\":7872:7875   */\n      dup5\n        /* \"#utility.yul\":7863:7869   */\n      dup5\n        /* \"#utility.yul\":7858:7861   */\n      dup5\n        /* \"#utility.yul\":7854:7870   */\n      add\n        /* \"#utility.yul\":7851:7876   */\n      gt\n        /* \"#utility.yul\":7848:7960   */\n      iszero\n      tag_174\n      jumpi\n        /* \"#utility.yul\":7879:7958   */\n      tag_175\n      tag_79\n      jump\t// in\n    tag_175:\n        /* \"#utility.yul\":7848:7960   */\n    tag_174:\n        /* \"#utility.yul\":7969:8023   */\n      tag_176\n        /* \"#utility.yul\":8016:8022   */\n      dup5\n        /* \"#utility.yul\":8011:8014   */\n      dup3\n        /* \"#utility.yul\":8006:8009   */\n      dup6\n        /* \"#utility.yul\":7969:8023   */\n      tag_84\n      jump\t// in\n    tag_176:\n        /* \"#utility.yul\":7688:8029   */\n      pop\n        /* \"#utility.yul\":7604:8029   */\n      swap4\n      swap3\n      pop\n      pop\n      pop\n      jump\t// out\n        /* \"#utility.yul\":8049:8389   */\n    tag_86:\n        /* \"#utility.yul\":8105:8110   */\n      0x00\n        /* \"#utility.yul\":8154:8157   */\n      dup3\n        /* \"#utility.yul\":8147:8151   */\n      0x1f\n        /* \"#utility.yul\":8139:8145   */\n      dup4\n        /* \"#utility.yul\":8135:8152   */\n      add\n        /* \"#utility.yul\":8131:8158   */\n      slt\n        /* \"#utility.yul\":8121:8243   */\n      tag_178\n      jumpi\n        /* \"#utility.yul\":8162:8241   */\n      tag_179\n      tag_78\n      jump\t// in\n    tag_179:\n        /* \"#utility.yul\":8121:8243   */\n    tag_178:\n        /* \"#utility.yul\":8279:8285   */\n      dup2\n        /* \"#utility.yul\":8266:8286   */\n      calldataload\n        /* \"#utility.yul\":8304:8383   */\n      tag_180\n        /* \"#utility.yul\":8379:8382   */\n      dup5\n        /* \"#utility.yul\":8371:8377   */\n      dup3\n        /* \"#utility.yul\":8364:8368   */\n      0x20\n        /* \"#utility.yul\":8356:8362   */\n      dup7\n        /* \"#utility.yul\":8352:8369   */\n      add\n        /* \"#utility.yul\":8304:8383   */\n      tag_85\n      jump\t// in\n    tag_180:\n        /* \"#utility.yul\":8295:8383   */\n      swap2\n      pop\n        /* \"#utility.yul\":8111:8389   */\n      pop\n        /* \"#utility.yul\":8049:8389   */\n      swap3\n      swap2\n      pop\n      pop\n      jump\t// out\n        /* \"#utility.yul\":8395:8904   */\n    tag_21:\n        /* \"#utility.yul\":8464:8470   */\n      0x00\n        /* \"#utility.yul\":8513:8515   */\n      0x20\n        /* \"#utility.yul\":8501:8510   */\n      dup3\n        /* \"#utility.yul\":8492:8499   */\n      dup5\n        /* \"#utility.yul\":8488:8511   */\n      sub\n        /* \"#utility.yul\":8484:8516   */\n      slt\n        /* \"#utility.yul\":8481:8600   */\n      iszero\n      tag_182\n      jumpi\n        /* \"#utility.yul\":8519:8598   */\n      tag_183\n      tag_55\n      jump\t// in\n    tag_183:\n        /* \"#utility.yul\":8481:8600   */\n    tag_182:\n        /* \"#utility.yul\":8667:8668   */\n      0x00\n        /* \"#utility.yul\":8656:8665   */\n      dup3\n        /* \"#utility.yul\":8652:8669   */\n      add\n        /* \"#utility.yul\":8639:8670   */\n      calldataload\n        /* \"#utility.yul\":8697:8715   */\n      0xffffffffffffffff\n        /* \"#utility.yul\":8689:8695   */\n      dup2\n        /* \"#utility.yul\":8686:8716   */\n      gt\n        /* \"#utility.yul\":8683:8800   */\n      iszero\n      tag_184\n      jumpi\n        /* \"#utility.yul\":8719:8798   */\n      tag_185\n      tag_56\n      jump\t// in\n    tag_185:\n        /* \"#utility.yul\":8683:8800   */\n    tag_184:\n        /* \"#utility.yul\":8824:8887   */\n      tag_186\n        /* \"#utility.yul\":8879:8886   */\n      dup5\n        /* \"#utility.yul\":8870:8876   */\n      dup3\n        /* \"#utility.yul\":8859:8868   */\n      dup6\n        /* \"#utility.yul\":8855:8877   */\n      add\n        /* \"#utility.yul\":8824:8887   */\n      tag_86\n      jump\t// in\n    tag_186:\n        /* \"#utility.yul\":8814:8887   */\n      swap2\n      pop\n        /* \"#utility.yul\":8610:8897   */\n      pop\n        /* \"#utility.yul\":8395:8904   */\n      swap3\n      swap2\n      pop\n      pop\n      jump\t// out\n        /* \"#utility.yul\":8910:9079   */\n    tag_87:\n        /* \"#utility.yul\":8994:9005   */\n      0x00\n        /* \"#utility.yul\":9028:9034   */\n      dup3\n        /* \"#utility.yul\":9023:9026   */\n      dup3\n        /* \"#utility.yul\":9016:9035   */\n      mstore\n        /* \"#utility.yul\":9068:9072   */\n      0x20\n        /* \"#utility.yul\":9063:9066   */\n      dup3\n        /* \"#utility.yul\":9059:9073   */\n      add\n        /* \"#utility.yul\":9044:9073   */\n      swap1\n      pop\n        /* \"#utility.yul\":8910:9079   */\n      swap3\n      swap2\n      pop\n      pop\n      jump\t// out\n        /* \"#utility.yul\":9085:9249   */\n    tag_88:\n        /* \"#utility.yul\":9225:9241   */\n      0x496e76616c6964206f7074696f6e000000000000000000000000000000000000\n        /* \"#utility.yul\":9221:9222   */\n      0x00\n        /* \"#utility.yul\":9213:9219   */\n      dup3\n        /* \"#utility.yul\":9209:9223   */\n      add\n        /* \"#utility.yul\":9202:9242   */\n      mstore\n        /* \"#utility.yul\":9085:9249   */\n      pop\n      jump\t// out\n        /* \"#utility.yul\":9255:9621   */\n    tag_89:\n        /* \"#utility.yul\":9397:9400   */\n      0x00\n        /* \"#utility.yul\":9418:9485   */\n      tag_190\n        /* \"#utility.yul\":9482:9484   */\n      0x0e\n        /* \"#utility.yul\":9477:9480   */\n      dup4\n        /* \"#utility.yul\":9418:9485   */\n      tag_87\n      jump\t// in\n    tag_190:\n        /* \"#utility.yul\":9411:9485   */\n      swap2\n      pop\n        /* \"#utility.yul\":9494:9587   */\n      tag_191\n        /* \"#utility.yul\":9583:9586   */\n      dup3\n        /* \"#utility.yul\":9494:9587   */\n      tag_88\n      jump\t// in\n    tag_191:\n        /* \"#utility.yul\":9612:9614   */\n      0x20\n        /* \"#utility.yul\":9607:9610   */\n      dup3\n        /* \"#utility.yul\":9603:9615   */\n      add\n        /* \"#utility.yul\":9596:9615   */\n      swap1\n      pop\n        /* \"#utility.yul\":9255:9621   */\n      swap2\n      swap1\n      pop\n      jump\t// out\n        /* \"#utility.yul\":9627:10046   */\n    tag_27:\n        /* \"#utility.yul\":9793:9797   */\n      0x00\n        /* \"#utility.yul\":9831:9833   */\n      0x20\n        /* \"#utility.yul\":9820:9829   */\n      dup3\n        /* \"#utility.yul\":9816:9834   */\n      add\n        /* \"#utility.yul\":9808:9834   */\n      swap1\n      pop\n        /* \"#utility.yul\":9880:9889   */\n      dup2\n        /* \"#utility.yul\":9874:9878   */\n      dup2\n        /* \"#utility.yul\":9870:9890   */\n      sub\n        /* \"#utility.yul\":9866:9867   */\n      0x00\n        /* \"#utility.yul\":9855:9864   */\n      dup4\n        /* \"#utility.yul\":9851:9868   */\n      add\n        /* \"#utility.yul\":9844:9891   */\n      mstore\n        /* \"#utility.yul\":9908:10039   */\n      tag_193\n        /* \"#utility.yul\":10034:10038   */\n      dup2\n        /* \"#utility.yul\":9908:10039   */\n      tag_89\n      jump\t// in\n    tag_193:\n        /* \"#utility.yul\":9900:10039   */\n      swap1\n      pop\n        /* \"#utility.yul\":9627:10046   */\n      swap2\n      swap1\n      pop\n      jump\t// out\n        /* \"#utility.yul\":10052:10227   */\n    tag_90:\n        /* \"#utility.yul\":10192:10219   */\n      0x4163636f756e742068617320616c726561647920766f74656400000000000000\n        /* \"#utility.yul\":10188:10189   */\n      0x00\n        /* \"#utility.yul\":10180:10186   */\n      dup3\n        /* \"#utility.yul\":10176:10190   */\n      add\n        /* \"#utility.yul\":10169:10220   */\n      mstore\n        /* \"#utility.yul\":10052:10227   */\n      pop\n      jump\t// out\n        /* \"#utility.yul\":10233:10599   */\n    tag_91:\n        /* \"#utility.yul\":10375:10378   */\n      0x00\n        /* \"#utility.yul\":10396:10463   */\n      tag_196\n        /* \"#utility.yul\":10460:10462   */\n      0x19\n        /* \"#utility.yul\":10455:10458   */\n      dup4\n        /* \"#utility.yul\":10396:10463   */\n      tag_87\n      jump\t// in\n    tag_196:\n        /* \"#utility.yul\":10389:10463   */\n      swap2\n      pop\n        /* \"#utility.yul\":10472:10565   */\n      tag_197\n        /* \"#utility.yul\":10561:10564   */\n      dup3\n        /* \"#utility.yul\":10472:10565   */\n      tag_90\n      jump\t// in\n    tag_197:\n        /* \"#utility.yul\":10590:10592   */\n      0x20\n        /* \"#utility.yul\":10585:10588   */\n      dup3\n        /* \"#utility.yul\":10581:10593   */\n      add\n        /* \"#utility.yul\":10574:10593   */\n      swap1\n      pop\n        /* \"#utility.yul\":10233:10599   */\n      swap2\n      swap1\n      pop\n      jump\t// out\n        /* \"#utility.yul\":10605:11024   */\n    tag_30:\n        /* \"#utility.yul\":10771:10775   */\n      0x00\n        /* \"#utility.yul\":10809:10811   */\n      0x20\n        /* \"#utility.yul\":10798:10807   */\n      dup3\n        /* \"#utility.yul\":10794:10812   */\n      add\n        /* \"#utility.yul\":10786:10812   */\n      swap1\n      pop\n        /* \"#utility.yul\":10858:10867   */\n      dup2\n        /* \"#utility.yul\":10852:10856   */\n      dup2\n        /* \"#utility.yul\":10848:10868   */\n      sub\n        /* \"#utility.yul\":10844:10845   */\n      0x00\n        /* \"#utility.yul\":10833:10842   */\n      dup4\n        /* \"#utility.yul\":10829:10846   */\n      add\n        /* \"#utility.yul\":10822:10869   */\n      mstore\n        /* \"#utility.yul\":10886:11017   */\n      tag_199\n        /* \"#utility.yul\":11012:11016   */\n      dup2\n        /* \"#utility.yul\":10886:11017   */\n      tag_91\n      jump\t// in\n    tag_199:\n        /* \"#utility.yul\":10878:11017   */\n      swap1\n      pop\n        /* \"#utility.yul\":10605:11024   */\n      swap2\n      swap1\n      pop\n      jump\t// out\n        /* \"#utility.yul\":11030:11210   */\n    tag_33:\n        /* \"#utility.yul\":11078:11155   */\n      0x4e487b7100000000000000000000000000000000000000000000000000000000\n        /* \"#utility.yul\":11075:11076   */\n      0x00\n        /* \"#utility.yul\":11068:11156   */\n      mstore\n        /* \"#utility.yul\":11175:11179   */\n      0x32\n        /* \"#utility.yul\":11172:11173   */\n      0x04\n        /* \"#utility.yul\":11165:11180   */\n      mstore\n        /* \"#utility.yul\":11199:11203   */\n      0x24\n        /* \"#utility.yul\":11196:11197   */\n      0x00\n        /* \"#utility.yul\":11189:11204   */\n      revert\n        /* \"#utility.yul\":11216:11396   */\n    tag_92:\n        /* \"#utility.yul\":11264:11341   */\n      0x4e487b7100000000000000000000000000000000000000000000000000000000\n        /* \"#utility.yul\":11261:11262   */\n      0x00\n        /* \"#utility.yul\":11254:11342   */\n      mstore\n        /* \"#utility.yul\":11361:11365   */\n      0x11\n        /* \"#utility.yul\":11358:11359   */\n      0x04\n        /* \"#utility.yul\":11351:11366   */\n      mstore\n        /* \"#utility.yul\":11385:11389   */\n      0x24\n        /* \"#utility.yul\":11382:11383   */\n      0x00\n        /* \"#utility.yul\":11375:11390   */\n      revert\n        /* \"#utility.yul\":11402:11593   */\n    tag_36:\n        /* \"#utility.yul\":11442:11445   */\n      0x00\n        /* \"#utility.yul\":11461:11481   */\n      tag_203\n        /* \"#utility.yul\":11479:11480   */\n      dup3\n        /* \"#utility.yul\":11461:11481   */\n      tag_57\n      jump\t// in\n    tag_203:\n        /* \"#utility.yul\":11456:11481   */\n      swap2\n      pop\n        /* \"#utility.yul\":11495:11515   */\n      tag_204\n        /* \"#utility.yul\":11513:11514   */\n      dup4\n        /* \"#utility.yul\":11495:11515   */\n      tag_57\n      jump\t// in\n    tag_204:\n        /* \"#utility.yul\":11490:11515   */\n      swap3\n      pop\n        /* \"#utility.yul\":11538:11539   */\n      dup3\n        /* \"#utility.yul\":11535:11536   */\n      dup3\n        /* \"#utility.yul\":11531:11540   */\n      add\n        /* \"#utility.yul\":11524:11540   */\n      swap1\n      pop\n        /* \"#utility.yul\":11559:11562   */\n      dup1\n        /* \"#utility.yul\":11556:11557   */\n      dup3\n        /* \"#utility.yul\":11553:11563   */\n      gt\n        /* \"#utility.yul\":11550:11586   */\n      iszero\n      tag_205\n      jumpi\n        /* \"#utility.yul\":11566:11584   */\n      tag_206\n      tag_92\n      jump\t// in\n    tag_206:\n        /* \"#utility.yul\":11550:11586   */\n    tag_205:\n        /* \"#utility.yul\":11402:11593   */\n      swap3\n      swap2\n      pop\n      pop\n      jump\t// out\n        /* \"#utility.yul\":11599:11779   */\n    tag_93:\n        /* \"#utility.yul\":11647:11724   */\n      0x4e487b7100000000000000000000000000000000000000000000000000000000\n        /* \"#utility.yul\":11644:11645   */\n      0x00\n        /* \"#utility.yul\":11637:11725   */\n      mstore\n        /* \"#utility.yul\":11744:11748   */\n      0x22\n        /* \"#utility.yul\":11741:11742   */\n      0x04\n        /* \"#utility.yul\":11734:11749   */\n      mstore\n        /* \"#utility.yul\":11768:11772   */\n      0x24\n        /* \"#utility.yul\":11765:11766   */\n      0x00\n        /* \"#utility.yul\":11758:11773   */\n      revert\n        /* \"#utility.yul\":11785:12105   */\n    tag_48:\n        /* \"#utility.yul\":11829:11835   */\n      0x00\n        /* \"#utility.yul\":11866:11867   */\n      0x02\n        /* \"#utility.yul\":11860:11864   */\n      dup3\n        /* \"#utility.yul\":11856:11868   */\n      div\n        /* \"#utility.yul\":11846:11868   */\n      swap1\n      pop\n        /* \"#utility.yul\":11913:11914   */\n      0x01\n        /* \"#utility.yul\":11907:11911   */\n      dup3\n        /* \"#utility.yul\":11903:11915   */\n      and\n        /* \"#utility.yul\":11934:11952   */\n      dup1\n        /* \"#utility.yul\":11924:12005   */\n      tag_209\n      jumpi\n        /* \"#utility.yul\":11990:11994   */\n      0x7f\n        /* \"#utility.yul\":11982:11988   */\n      dup3\n        /* \"#utility.yul\":11978:11995   */\n      and\n        /* \"#utility.yul\":11968:11995   */\n      swap2\n      pop\n        /* \"#utility.yul\":11924:12005   */\n    tag_209:\n        /* \"#utility.yul\":12052:12054   */\n      0x20\n        /* \"#utility.yul\":12044:12050   */\n      dup3\n        /* \"#utility.yul\":12041:12055   */\n      lt\n        /* \"#utility.yul\":12021:12039   */\n      dup2\n        /* \"#utility.yul\":12018:12056   */\n      sub\n        /* \"#utility.yul\":12015:12099   */\n      tag_210\n      jumpi\n        /* \"#utility.yul\":12071:12089   */\n      tag_211\n      tag_93\n      jump\t// in\n    tag_211:\n        /* \"#utility.yul\":12015:12099   */\n    tag_210:\n        /* \"#utility.yul\":11836:12105   */\n      pop\n        /* \"#utility.yul\":11785:12105   */\n      swap2\n      swap1\n      pop\n      jump\t// out\n\n    auxdata: 0xa26469706673582212203ee69578a5316d761b239d85a377f2e9169b65073d917454476a0a65a878ee8c64736f6c63430008100033\n}\n",
				"bytecode": {
					"linkReferences": {},
					"object": "60806040523480156200001157600080fd5b50604051620011fe380380620011fe83398181016040528101906200003791906200048f565b80600190805190602001906200004f929190620000c1565b5060018054905067ffffffffffffffff8111156200007257620000716200022a565b5b604051908082528060200260200182016040528015620000a15781602001602082028036833780820191505090505b5060009080519060200190620000b992919062000121565b505062000812565b8280548282559060005260206000209081019282156200010e579160200282015b828111156200010d578251829081620000fc91906200072b565b5091602001919060010190620000e2565b5b5090506200011d919062000173565b5090565b82805482825590600052602060002090810192821562000160579160200282015b828111156200015f57825182559160200191906001019062000142565b5b5090506200016f91906200019b565b5090565b5b808211156200019757600081816200018d9190620001ba565b5060010162000174565b5090565b5b80821115620001b65760008160009055506001016200019c565b5090565b508054620001c8906200051a565b6000825580601f10620001dc5750620001fd565b601f016020900490600052602060002090810190620001fc91906200019b565b5b50565b6000604051905090565b600080fd5b600080fd5b600080fd5b6000601f19601f8301169050919050565b7f4e487b7100000000000000000000000000000000000000000000000000000000600052604160045260246000fd5b620002648262000219565b810181811067ffffffffffffffff821117156200028657620002856200022a565b5b80604052505050565b60006200029b62000200565b9050620002a9828262000259565b919050565b600067ffffffffffffffff821115620002cc57620002cb6200022a565b5b602082029050602081019050919050565b600080fd5b600080fd5b600067ffffffffffffffff8211156200030557620003046200022a565b5b620003108262000219565b9050602081019050919050565b60005b838110156200033d57808201518184015260208101905062000320565b60008484015250505050565b6000620003606200035a84620002e7565b6200028f565b9050828152602081018484840111156200037f576200037e620002e2565b5b6200038c8482856200031d565b509392505050565b600082601f830112620003ac57620003ab62000214565b5b8151620003be84826020860162000349565b91505092915050565b6000620003de620003d884620002ae565b6200028f565b90508083825260208201905060208402830185811115620004045762000403620002dd565b5b835b818110156200045257805167ffffffffffffffff8111156200042d576200042c62000214565b5b8086016200043c898262000394565b8552602085019450505060208101905062000406565b5050509392505050565b600082601f83011262000474576200047362000214565b5b815162000486848260208601620003c7565b91505092915050565b600060208284031215620004a857620004a76200020a565b5b600082015167ffffffffffffffff811115620004c957620004c86200020f565b5b620004d7848285016200045c565b91505092915050565b600081519050919050565b7f4e487b7100000000000000000000000000000000000000000000000000000000600052602260045260246000fd5b600060028204905060018216806200053357607f821691505b602082108103620005495762000548620004eb565b5b50919050565b60008190508160005260206000209050919050565b60006020601f8301049050919050565b600082821b905092915050565b600060088302620005b37fffffffffffffffffffffffffffffffffffffffffffffffffffffffffffffffff8262000574565b620005bf868362000574565b95508019841693508086168417925050509392505050565b6000819050919050565b6000819050919050565b60006200060c620006066200060084620005d7565b620005e1565b620005d7565b9050919050565b6000819050919050565b6200062883620005eb565b62000640620006378262000613565b84845462000581565b825550505050565b600090565b6200065762000648565b620006648184846200061d565b505050565b5b818110156200068c57620006806000826200064d565b6001810190506200066a565b5050565b601f821115620006db57620006a5816200054f565b620006b08462000564565b81016020851015620006c0578190505b620006d8620006cf8562000564565b83018262000669565b50505b505050565b600082821c905092915050565b60006200070060001984600802620006e0565b1980831691505092915050565b60006200071b8383620006ed565b9150826002028217905092915050565b6200073682620004e0565b67ffffffffffffffff8111156200075257620007516200022a565b5b6200075e82546200051a565b6200076b82828562000690565b600060209050601f831160018114620007a357600084156200078e578287015190505b6200079a85826200070d565b8655506200080a565b601f198416620007b3866200054f565b60005b82811015620007dd57848901518255600182019150602085019450602081019050620007b6565b86831015620007fd5784890151620007f9601f891682620006ed565b8355505b6001600288020188555050505b505050505050565b6109dc80620008226000396000f3fe608060405234801561001057600080fd5b506004361061004c5760003560e01c80630121b93f146100515780630dc960151461006d578063cc2ee1961461008b578063fc36e15b146100a9575b600080fd5b61006b600480360381019061006691906103cc565b6100c5565b005b61007561024e565b60405161008291906104b7565b60405180910390f35b6100936102a6565b6040516100a0919061062b565b60405180910390f35b6100c360048036038101906100be9190610782565b61037f565b005b806000111580156100da575060018054905081105b610119576040517f08c379a000000000000000000000000000000000000000000000000000000000815260040161011090610828565b60405180910390fd5b600260003373ffffffffffffffffffffffffffffffffffffffff1673ffffffffffffffffffffffffffffffffffffffff16815260200190815260200160002060009054906101000a900460ff16156101a6576040517f08c379a000000000000000000000000000000000000000000000000000000000815260040161019d90610894565b60405180910390fd5b6001600082815481106101bc576101bb6108b4565b5b90600052602060002001546101d19190610912565b600082815481106101e5576101e46108b4565b5b90600052602060002001819055506001600260003373ffffffffffffffffffffffffffffffffffffffff1673ffffffffffffffffffffffffffffffffffffffff16815260200190815260200160002060006101000a81548160ff02191690831515021790555050565b6060600080548060200260200160405190810160405280929190818152602001828054801561029c57602002820191906000526020600020905b815481526020019060010190808311610288575b5050505050905090565b60606001805480602002602001604051908101604052809291908181526020016000905b828210156103765783829060005260206000200180546102e990610975565b80601f016020809104026020016040519081016040528092919081815260200182805461031590610975565b80156103625780601f1061033757610100808354040283529160200191610362565b820191906000526020600020905b81548152906001019060200180831161034557829003601f168201915b5050505050815260200190600101906102ca565b50505050905090565b50565b6000604051905090565b600080fd5b600080fd5b6000819050919050565b6103a981610396565b81146103b457600080fd5b50565b6000813590506103c6816103a0565b92915050565b6000602082840312156103e2576103e161038c565b5b60006103f0848285016103b7565b91505092915050565b600081519050919050565b600082825260208201905092915050565b6000819050602082019050919050565b61042e81610396565b82525050565b60006104408383610425565b60208301905092915050565b6000602082019050919050565b6000610464826103f9565b61046e8185610404565b935061047983610415565b8060005b838110156104aa5781516104918882610434565b975061049c8361044c565b92505060018101905061047d565b5085935050505092915050565b600060208201905081810360008301526104d18184610459565b905092915050565b600081519050919050565b600082825260208201905092915050565b6000819050602082019050919050565b600081519050919050565b600082825260208201905092915050565b60005b8381101561053f578082015181840152602081019050610524565b60008484015250505050565b6000601f19601f8301169050919050565b600061056782610505565b6105718185610510565b9350610581818560208601610521565b61058a8161054b565b840191505092915050565b60006105a1838361055c565b905092915050565b6000602082019050919050565b60006105c1826104d9565b6105cb81856104e4565b9350836020820285016105dd856104f5565b8060005b8581101561061957848403895281516105fa8582610595565b9450610605836105a9565b925060208a019950506001810190506105e1565b50829750879550505050505092915050565b6000602082019050818103600083015261064581846105b6565b905092915050565b600080fd5b600080fd5b7f4e487b7100000000000000000000000000000000000000000000000000000000600052604160045260246000fd5b61068f8261054b565b810181811067ffffffffffffffff821117156106ae576106ad610657565b5b80604052505050565b60006106c1610382565b90506106cd8282610686565b919050565b600067ffffffffffffffff8211156106ed576106ec610657565b5b6106f68261054b565b9050602081019050919050565b82818337600083830152505050565b6000610725610720846106d2565b6106b7565b90508281526020810184848401111561074157610740610652565b5b61074c848285610703565b509392505050565b600082601f8301126107695761076861064d565b5b8135610779848260208601610712565b91505092915050565b6000602082840312156107985761079761038c565b5b600082013567ffffffffffffffff8111156107b6576107b5610391565b5b6107c284828501610754565b91505092915050565b600082825260208201905092915050565b7f496e76616c6964206f7074696f6e000000000000000000000000000000000000600082015250565b6000610812600e836107cb565b915061081d826107dc565b602082019050919050565b6000602082019050818103600083015261084181610805565b9050919050565b7f4163636f756e742068617320616c726561647920766f74656400000000000000600082015250565b600061087e6019836107cb565b915061088982610848565b602082019050919050565b600060208201905081810360008301526108ad81610871565b9050919050565b7f4e487b7100000000000000000000000000000000000000000000000000000000600052603260045260246000fd5b7f4e487b7100000000000000000000000000000000000000000000000000000000600052601160045260246000fd5b600061091d82610396565b915061092883610396565b92508282019050808211156109405761093f6108e3565b5b92915050565b7f4e487b7100000000000000000000000000000000000000000000000000000000600052602260045260246000fd5b6000600282049050600182168061098d57607f821691505b6020821081036109a05761099f610946565b5b5091905056fea26469706673582212203ee69578a5316d761b239d85a377f2e9169b65073d917454476a0a65a878ee8c64736f6c63430008100033",
					"opcodes": "PUSH1 0x80 PUSH1 0x40 MSTORE CALLVALUE DUP1 ISZERO PUSH3 0x11 JUMPI PUSH1 0x0 DUP1 REVERT JUMPDEST POP PUSH1 0x40 MLOAD PUSH3 0x11FE CODESIZE SUB DUP1 PUSH3 0x11FE DUP4 CODECOPY DUP2 DUP2 ADD PUSH1 0x40 MSTORE DUP2 ADD SWAP1 PUSH3 0x37 SWAP2 SWAP1 PUSH3 0x48F JUMP JUMPDEST DUP1 PUSH1 0x1 SWAP1 DUP1 MLOAD SWAP1 PUSH1 0x20 ADD SWAP1 PUSH3 0x4F SWAP3 SWAP2 SWAP1 PUSH3 0xC1 JUMP JUMPDEST POP PUSH1 0x1 DUP1 SLOAD SWAP1 POP PUSH8 0xFFFFFFFFFFFFFFFF DUP2 GT ISZERO PUSH3 0x72 JUMPI PUSH3 0x71 PUSH3 0x22A JUMP JUMPDEST JUMPDEST PUSH1 0x40 MLOAD SWAP1 DUP1 DUP3 MSTORE DUP1 PUSH1 0x20 MUL PUSH1 0x20 ADD DUP3 ADD PUSH1 0x40 MSTORE DUP1 ISZERO PUSH3 0xA1 JUMPI DUP2 PUSH1 0x20 ADD PUSH1 0x20 DUP3 MUL DUP1 CALLDATASIZE DUP4 CALLDATACOPY DUP1 DUP3 ADD SWAP2 POP POP SWAP1 POP JUMPDEST POP PUSH1 0x0 SWAP1 DUP1 MLOAD SWAP1 PUSH1 0x20 ADD SWAP1 PUSH3 0xB9 SWAP3 SWAP2 SWAP1 PUSH3 0x121 JUMP JUMPDEST POP POP PUSH3 0x812 JUMP JUMPDEST DUP3 DUP1 SLOAD DUP3 DUP3 SSTORE SWAP1 PUSH1 0x0 MSTORE PUSH1 0x20 PUSH1 0x0 KECCAK256 SWAP1 DUP2 ADD SWAP3 DUP3 ISZERO PUSH3 0x10E JUMPI SWAP2 PUSH1 0x20 MUL DUP3 ADD JUMPDEST DUP3 DUP2 GT ISZERO PUSH3 0x10D JUMPI DUP3 MLOAD DUP3 SWAP1 DUP2 PUSH3 0xFC SWAP2 SWAP1 PUSH3 0x72B JUMP JUMPDEST POP SWAP2 PUSH1 0x20 ADD SWAP2 SWAP1 PUSH1 0x1 ADD SWAP1 PUSH3 0xE2 JUMP JUMPDEST JUMPDEST POP SWAP1 POP PUSH3 0x11D SWAP2 SWAP1 PUSH3 0x173 JUMP JUMPDEST POP SWAP1 JUMP JUMPDEST DUP3 DUP1 SLOAD DUP3 DUP3 SSTORE SWAP1 PUSH1 0x0 MSTORE PUSH1 0x20 PUSH1 0x0 KECCAK256 SWAP1 DUP2 ADD SWAP3 DUP3 ISZERO PUSH3 0x160 JUMPI SWAP2 PUSH1 0x20 MUL DUP3 ADD JUMPDEST DUP3 DUP2 GT ISZERO PUSH3 0x15F JUMPI DUP3 MLOAD DUP3 SSTORE SWAP2 PUSH1 0x20 ADD SWAP2 SWAP1 PUSH1 0x1 ADD SWAP1 PUSH3 0x142 JUMP JUMPDEST JUMPDEST POP SWAP1 POP PUSH3 0x16F SWAP2 SWAP1 PUSH3 0x19B JUMP JUMPDEST POP SWAP1 JUMP JUMPDEST JUMPDEST DUP1 DUP3 GT ISZERO PUSH3 0x197 JUMPI PUSH1 0x0 DUP2 DUP2 PUSH3 0x18D SWAP2 SWAP1 PUSH3 0x1BA JUMP JUMPDEST POP PUSH1 0x1 ADD PUSH3 0x174 JUMP JUMPDEST POP SWAP1 JUMP JUMPDEST JUMPDEST DUP1 DUP3 GT ISZERO PUSH3 0x1B6 JUMPI PUSH1 0x0 DUP2 PUSH1 0x0 SWAP1 SSTORE POP PUSH1 0x1 ADD PUSH3 0x19C JUMP JUMPDEST POP SWAP1 JUMP JUMPDEST POP DUP1 SLOAD PUSH3 0x1C8 SWAP1 PUSH3 0x51A JUMP JUMPDEST PUSH1 0x0 DUP3 SSTORE DUP1 PUSH1 0x1F LT PUSH3 0x1DC JUMPI POP PUSH3 0x1FD JUMP JUMPDEST PUSH1 0x1F ADD PUSH1 0x20 SWAP1 DIV SWAP1 PUSH1 0x0 MSTORE PUSH1 0x20 PUSH1 0x0 KECCAK256 SWAP1 DUP2 ADD SWAP1 PUSH3 0x1FC SWAP2 SWAP1 PUSH3 0x19B JUMP JUMPDEST JUMPDEST POP JUMP JUMPDEST PUSH1 0x0 PUSH1 0x40 MLOAD SWAP1 POP SWAP1 JUMP JUMPDEST PUSH1 0x0 DUP1 REVERT JUMPDEST PUSH1 0x0 DUP1 REVERT JUMPDEST PUSH1 0x0 DUP1 REVERT JUMPDEST PUSH1 0x0 PUSH1 0x1F NOT PUSH1 0x1F DUP4 ADD AND SWAP1 POP SWAP2 SWAP1 POP JUMP JUMPDEST PUSH32 0x4E487B7100000000000000000000000000000000000000000000000000000000 PUSH1 0x0 MSTORE PUSH1 0x41 PUSH1 0x4 MSTORE PUSH1 0x24 PUSH1 0x0 REVERT JUMPDEST PUSH3 0x264 DUP3 PUSH3 0x219 JUMP JUMPDEST DUP2 ADD DUP2 DUP2 LT PUSH8 0xFFFFFFFFFFFFFFFF DUP3 GT OR ISZERO PUSH3 0x286 JUMPI PUSH3 0x285 PUSH3 0x22A JUMP JUMPDEST JUMPDEST DUP1 PUSH1 0x40 MSTORE POP POP POP JUMP JUMPDEST PUSH1 0x0 PUSH3 0x29B PUSH3 0x200 JUMP JUMPDEST SWAP1 POP PUSH3 0x2A9 DUP3 DUP3 PUSH3 0x259 JUMP JUMPDEST SWAP2 SWAP1 POP JUMP JUMPDEST PUSH1 0x0 PUSH8 0xFFFFFFFFFFFFFFFF DUP3 GT ISZERO PUSH3 0x2CC JUMPI PUSH3 0x2CB PUSH3 0x22A JUMP JUMPDEST JUMPDEST PUSH1 0x20 DUP3 MUL SWAP1 POP PUSH1 0x20 DUP2 ADD SWAP1 POP SWAP2 SWAP1 POP JUMP JUMPDEST PUSH1 0x0 DUP1 REVERT JUMPDEST PUSH1 0x0 DUP1 REVERT JUMPDEST PUSH1 0x0 PUSH8 0xFFFFFFFFFFFFFFFF DUP3 GT ISZERO PUSH3 0x305 JUMPI PUSH3 0x304 PUSH3 0x22A JUMP JUMPDEST JUMPDEST PUSH3 0x310 DUP3 PUSH3 0x219 JUMP JUMPDEST SWAP1 POP PUSH1 0x20 DUP2 ADD SWAP1 POP SWAP2 SWAP1 POP JUMP JUMPDEST PUSH1 0x0 JUMPDEST DUP4 DUP2 LT ISZERO PUSH3 0x33D JUMPI DUP1 DUP3 ADD MLOAD DUP2 DUP5 ADD MSTORE PUSH1 0x20 DUP2 ADD SWAP1 POP PUSH3 0x320 JUMP JUMPDEST PUSH1 0x0 DUP5 DUP5 ADD MSTORE POP POP POP POP JUMP JUMPDEST PUSH1 0x0 PUSH3 0x360 PUSH3 0x35A DUP5 PUSH3 0x2E7 JUMP JUMPDEST PUSH3 0x28F JUMP JUMPDEST SWAP1 POP DUP3 DUP2 MSTORE PUSH1 0x20 DUP2 ADD DUP5 DUP5 DUP5 ADD GT ISZERO PUSH3 0x37F JUMPI PUSH3 0x37E PUSH3 0x2E2 JUMP JUMPDEST JUMPDEST PUSH3 0x38C DUP5 DUP3 DUP6 PUSH3 0x31D JUMP JUMPDEST POP SWAP4 SWAP3 POP POP POP JUMP JUMPDEST PUSH1 0x0 DUP3 PUSH1 0x1F DUP4 ADD SLT PUSH3 0x3AC JUMPI PUSH3 0x3AB PUSH3 0x214 JUMP JUMPDEST JUMPDEST DUP2 MLOAD PUSH3 0x3BE DUP5 DUP3 PUSH1 0x20 DUP7 ADD PUSH3 0x349 JUMP JUMPDEST SWAP2 POP POP SWAP3 SWAP2 POP POP JUMP JUMPDEST PUSH1 0x0 PUSH3 0x3DE PUSH3 0x3D8 DUP5 PUSH3 0x2AE JUMP JUMPDEST PUSH3 0x28F JUMP JUMPDEST SWAP1 POP DUP1 DUP4 DUP3 MSTORE PUSH1 0x20 DUP3 ADD SWAP1 POP PUSH1 0x20 DUP5 MUL DUP4 ADD DUP6 DUP2 GT ISZERO PUSH3 0x404 JUMPI PUSH3 0x403 PUSH3 0x2DD JUMP JUMPDEST JUMPDEST DUP4 JUMPDEST DUP2 DUP2 LT ISZERO PUSH3 0x452 JUMPI DUP1 MLOAD PUSH8 0xFFFFFFFFFFFFFFFF DUP2 GT ISZERO PUSH3 0x42D JUMPI PUSH3 0x42C PUSH3 0x214 JUMP JUMPDEST JUMPDEST DUP1 DUP7 ADD PUSH3 0x43C DUP10 DUP3 PUSH3 0x394 JUMP JUMPDEST DUP6 MSTORE PUSH1 0x20 DUP6 ADD SWAP5 POP POP POP PUSH1 0x20 DUP2 ADD SWAP1 POP PUSH3 0x406 JUMP JUMPDEST POP POP POP SWAP4 SWAP3 POP POP POP JUMP JUMPDEST PUSH1 0x0 DUP3 PUSH1 0x1F DUP4 ADD SLT PUSH3 0x474 JUMPI PUSH3 0x473 PUSH3 0x214 JUMP JUMPDEST JUMPDEST DUP2 MLOAD PUSH3 0x486 DUP5 DUP3 PUSH1 0x20 DUP7 ADD PUSH3 0x3C7 JUMP JUMPDEST SWAP2 POP POP SWAP3 SWAP2 POP POP JUMP JUMPDEST PUSH1 0x0 PUSH1 0x20 DUP3 DUP5 SUB SLT ISZERO PUSH3 0x4A8 JUMPI PUSH3 0x4A7 PUSH3 0x20A JUMP JUMPDEST JUMPDEST PUSH1 0x0 DUP3 ADD MLOAD PUSH8 0xFFFFFFFFFFFFFFFF DUP2 GT ISZERO PUSH3 0x4C9 JUMPI PUSH3 0x4C8 PUSH3 0x20F JUMP JUMPDEST JUMPDEST PUSH3 0x4D7 DUP5 DUP3 DUP6 ADD PUSH3 0x45C JUMP JUMPDEST SWAP2 POP POP SWAP3 SWAP2 POP POP JUMP JUMPDEST PUSH1 0x0 DUP2 MLOAD SWAP1 POP SWAP2 SWAP1 POP JUMP JUMPDEST PUSH32 0x4E487B7100000000000000000000000000000000000000000000000000000000 PUSH1 0x0 MSTORE PUSH1 0x22 PUSH1 0x4 MSTORE PUSH1 0x24 PUSH1 0x0 REVERT JUMPDEST PUSH1 0x0 PUSH1 0x2 DUP3 DIV SWAP1 POP PUSH1 0x1 DUP3 AND DUP1 PUSH3 0x533 JUMPI PUSH1 0x7F DUP3 AND SWAP2 POP JUMPDEST PUSH1 0x20 DUP3 LT DUP2 SUB PUSH3 0x549 JUMPI PUSH3 0x548 PUSH3 0x4EB JUMP JUMPDEST JUMPDEST POP SWAP2 SWAP1 POP JUMP JUMPDEST PUSH1 0x0 DUP2 SWAP1 POP DUP2 PUSH1 0x0 MSTORE PUSH1 0x20 PUSH1 0x0 KECCAK256 SWAP1 POP SWAP2 SWAP1 POP JUMP JUMPDEST PUSH1 0x0 PUSH1 0x20 PUSH1 0x1F DUP4 ADD DIV SWAP1 POP SWAP2 SWAP1 POP JUMP JUMPDEST PUSH1 0x0 DUP3 DUP3 SHL SWAP1 POP SWAP3 SWAP2 POP POP JUMP JUMPDEST PUSH1 0x0 PUSH1 0x8 DUP4 MUL PUSH3 0x5B3 PUSH32 0xFFFFFFFFFFFFFFFFFFFFFFFFFFFFFFFFFFFFFFFFFFFFFFFFFFFFFFFFFFFFFFFF DUP3 PUSH3 0x574 JUMP JUMPDEST PUSH3 0x5BF DUP7 DUP4 PUSH3 0x574 JUMP JUMPDEST SWAP6 POP DUP1 NOT DUP5 AND SWAP4 POP DUP1 DUP7 AND DUP5 OR SWAP3 POP POP POP SWAP4 SWAP3 POP POP POP JUMP JUMPDEST PUSH1 0x0 DUP2 SWAP1 POP SWAP2 SWAP1 POP JUMP JUMPDEST PUSH1 0x0 DUP2 SWAP1 POP SWAP2 SWAP1 POP JUMP JUMPDEST PUSH1 0x0 PUSH3 0x60C PUSH3 0x606 PUSH3 0x600 DUP5 PUSH3 0x5D7 JUMP JUMPDEST PUSH3 0x5E1 JUMP JUMPDEST PUSH3 0x5D7 JUMP JUMPDEST SWAP1 POP SWAP2 SWAP1 POP JUMP JUMPDEST PUSH1 0x0 DUP2 SWAP1 POP SWAP2 SWAP1 POP JUMP JUMPDEST PUSH3 0x628 DUP4 PUSH3 0x5EB JUMP JUMPDEST PUSH3 0x640 PUSH3 0x637 DUP3 PUSH3 0x613 JUMP JUMPDEST DUP5 DUP5 SLOAD PUSH3 0x581 JUMP JUMPDEST DUP3 SSTORE POP POP POP POP JUMP JUMPDEST PUSH1 0x0 SWAP1 JUMP JUMPDEST PUSH3 0x657 PUSH3 0x648 JUMP JUMPDEST PUSH3 0x664 DUP2 DUP5 DUP5 PUSH3 0x61D JUMP JUMPDEST POP POP POP JUMP JUMPDEST JUMPDEST DUP2 DUP2 LT ISZERO PUSH3 0x68C JUMPI PUSH3 0x680 PUSH1 0x0 DUP3 PUSH3 0x64D JUMP JUMPDEST PUSH1 0x1 DUP2 ADD SWAP1 POP PUSH3 0x66A JUMP JUMPDEST POP POP JUMP JUMPDEST PUSH1 0x1F DUP3 GT ISZERO PUSH3 0x6DB JUMPI PUSH3 0x6A5 DUP2 PUSH3 0x54F JUMP JUMPDEST PUSH3 0x6B0 DUP5 PUSH3 0x564 JUMP JUMPDEST DUP2 ADD PUSH1 0x20 DUP6 LT ISZERO PUSH3 0x6C0 JUMPI DUP2 SWAP1 POP JUMPDEST PUSH3 0x6D8 PUSH3 0x6CF DUP6 PUSH3 0x564 JUMP JUMPDEST DUP4 ADD DUP3 PUSH3 0x669 JUMP JUMPDEST POP POP JUMPDEST POP POP POP JUMP JUMPDEST PUSH1 0x0 DUP3 DUP3 SHR SWAP1 POP SWAP3 SWAP2 POP POP JUMP JUMPDEST PUSH1 0x0 PUSH3 0x700 PUSH1 0x0 NOT DUP5 PUSH1 0x8 MUL PUSH3 0x6E0 JUMP JUMPDEST NOT DUP1 DUP4 AND SWAP2 POP POP SWAP3 SWAP2 POP POP JUMP JUMPDEST PUSH1 0x0 PUSH3 0x71B DUP4 DUP4 PUSH3 0x6ED JUMP JUMPDEST SWAP2 POP DUP3 PUSH1 0x2 MUL DUP3 OR SWAP1 POP SWAP3 SWAP2 POP POP JUMP JUMPDEST PUSH3 0x736 DUP3 PUSH3 0x4E0 JUMP JUMPDEST PUSH8 0xFFFFFFFFFFFFFFFF DUP2 GT ISZERO PUSH3 0x752 JUMPI PUSH3 0x751 PUSH3 0x22A JUMP JUMPDEST JUMPDEST PUSH3 0x75E DUP3 SLOAD PUSH3 0x51A JUMP JUMPDEST PUSH3 0x76B DUP3 DUP3 DUP6 PUSH3 0x690 JUMP JUMPDEST PUSH1 0x0 PUSH1 0x20 SWAP1 POP PUSH1 0x1F DUP4 GT PUSH1 0x1 DUP2 EQ PUSH3 0x7A3 JUMPI PUSH1 0x0 DUP5 ISZERO PUSH3 0x78E JUMPI DUP3 DUP8 ADD MLOAD SWAP1 POP JUMPDEST PUSH3 0x79A DUP6 DUP3 PUSH3 0x70D JUMP JUMPDEST DUP7 SSTORE POP PUSH3 0x80A JUMP JUMPDEST PUSH1 0x1F NOT DUP5 AND PUSH3 0x7B3 DUP7 PUSH3 0x54F JUMP JUMPDEST PUSH1 0x0 JUMPDEST DUP3 DUP2 LT ISZERO PUSH3 0x7DD JUMPI DUP5 DUP10 ADD MLOAD DUP3 SSTORE PUSH1 0x1 DUP3 ADD SWAP2 POP PUSH1 0x20 DUP6 ADD SWAP5 POP PUSH1 0x20 DUP2 ADD SWAP1 POP PUSH3 0x7B6 JUMP JUMPDEST DUP7 DUP4 LT ISZERO PUSH3 0x7FD JUMPI DUP5 DUP10 ADD MLOAD PUSH3 0x7F9 PUSH1 0x1F DUP10 AND DUP3 PUSH3 0x6ED JUMP JUMPDEST DUP4 SSTORE POP JUMPDEST PUSH1 0x1 PUSH1 0x2 DUP9 MUL ADD DUP9 SSTORE POP POP POP JUMPDEST POP POP POP POP POP POP JUMP JUMPDEST PUSH2 0x9DC DUP1 PUSH3 0x822 PUSH1 0x0 CODECOPY PUSH1 0x0 RETURN INVALID PUSH1 0x80 PUSH1 0x40 MSTORE CALLVALUE DUP1 ISZERO PUSH2 0x10 JUMPI PUSH1 0x0 DUP1 REVERT JUMPDEST POP PUSH1 0x4 CALLDATASIZE LT PUSH2 0x4C JUMPI PUSH1 0x0 CALLDATALOAD PUSH1 0xE0 SHR DUP1 PUSH4 0x121B93F EQ PUSH2 0x51 JUMPI DUP1 PUSH4 0xDC96015 EQ PUSH2 0x6D JUMPI DUP1 PUSH4 0xCC2EE196 EQ PUSH2 0x8B JUMPI DUP1 PUSH4 0xFC36E15B EQ PUSH2 0xA9 JUMPI JUMPDEST PUSH1 0x0 DUP1 REVERT JUMPDEST PUSH2 0x6B PUSH1 0x4 DUP1 CALLDATASIZE SUB DUP2 ADD SWAP1 PUSH2 0x66 SWAP2 SWAP1 PUSH2 0x3CC JUMP JUMPDEST PUSH2 0xC5 JUMP JUMPDEST STOP JUMPDEST PUSH2 0x75 PUSH2 0x24E JUMP JUMPDEST PUSH1 0x40 MLOAD PUSH2 0x82 SWAP2 SWAP1 PUSH2 0x4B7 JUMP JUMPDEST PUSH1 0x40 MLOAD DUP1 SWAP2 SUB SWAP1 RETURN JUMPDEST PUSH2 0x93 PUSH2 0x2A6 JUMP JUMPDEST PUSH1 0x40 MLOAD PUSH2 0xA0 SWAP2 SWAP1 PUSH2 0x62B JUMP JUMPDEST PUSH1 0x40 MLOAD DUP1 SWAP2 SUB SWAP1 RETURN JUMPDEST PUSH2 0xC3 PUSH1 0x4 DUP1 CALLDATASIZE SUB DUP2 ADD SWAP1 PUSH2 0xBE SWAP2 SWAP1 PUSH2 0x782 JUMP JUMPDEST PUSH2 0x37F JUMP JUMPDEST STOP JUMPDEST DUP1 PUSH1 0x0 GT ISZERO DUP1 ISZERO PUSH2 0xDA JUMPI POP PUSH1 0x1 DUP1 SLOAD SWAP1 POP DUP2 LT JUMPDEST PUSH2 0x119 JUMPI PUSH1 0x40 MLOAD PUSH32 0x8C379A000000000000000000000000000000000000000000000000000000000 DUP2 MSTORE PUSH1 0x4 ADD PUSH2 0x110 SWAP1 PUSH2 0x828 JUMP JUMPDEST PUSH1 0x40 MLOAD DUP1 SWAP2 SUB SWAP1 REVERT JUMPDEST PUSH1 0x2 PUSH1 0x0 CALLER PUSH20 0xFFFFFFFFFFFFFFFFFFFFFFFFFFFFFFFFFFFFFFFF AND PUSH20 0xFFFFFFFFFFFFFFFFFFFFFFFFFFFFFFFFFFFFFFFF AND DUP2 MSTORE PUSH1 0x20 ADD SWAP1 DUP2 MSTORE PUSH1 0x20 ADD PUSH1 0x0 KECCAK256 PUSH1 0x0 SWAP1 SLOAD SWAP1 PUSH2 0x100 EXP SWAP1 DIV PUSH1 0xFF AND ISZERO PUSH2 0x1A6 JUMPI PUSH1 0x40 MLOAD PUSH32 0x8C379A000000000000000000000000000000000000000000000000000000000 DUP2 MSTORE PUSH1 0x4 ADD PUSH2 0x19D SWAP1 PUSH2 0x894 JUMP JUMPDEST PUSH1 0x40 MLOAD DUP1 SWAP2 SUB SWAP1 REVERT JUMPDEST PUSH1 0x1 PUSH1 0x0 DUP3 DUP2 SLOAD DUP2 LT PUSH2 0x1BC JUMPI PUSH2 0x1BB PUSH2 0x8B4 JUMP JUMPDEST JUMPDEST SWAP1 PUSH1 0x0 MSTORE PUSH1 0x20 PUSH1 0x0 KECCAK256 ADD SLOAD PUSH2 0x1D1 SWAP2 SWAP1 PUSH2 0x912 JUMP JUMPDEST PUSH1 0x0 DUP3 DUP2 SLOAD DUP2 LT PUSH2 0x1E5 JUMPI PUSH2 0x1E4 PUSH2 0x8B4 JUMP JUMPDEST JUMPDEST SWAP1 PUSH1 0x0 MSTORE PUSH1 0x20 PUSH1 0x0 KECCAK256 ADD DUP2 SWAP1 SSTORE POP PUSH1 0x1 PUSH1 0x2 PUSH1 0x0 CALLER PUSH20 0xFFFFFFFFFFFFFFFFFFFFFFFFFFFFFFFFFFFFFFFF AND PUSH20 0xFFFFFFFFFFFFFFFFFFFFFFFFFFFFFFFFFFFFFFFF AND DUP2 MSTORE PUSH1 0x20 ADD SWAP1 DUP2 MSTORE PUSH1 0x20 ADD PUSH1 0x0 KECCAK256 PUSH1 0x0 PUSH2 0x100 EXP DUP2 SLOAD DUP2 PUSH1 0xFF MUL NOT AND SWAP1 DUP4 ISZERO ISZERO MUL OR SWAP1 SSTORE POP POP JUMP JUMPDEST PUSH1 0x60 PUSH1 0x0 DUP1 SLOAD DUP1 PUSH1 0x20 MUL PUSH1 0x20 ADD PUSH1 0x40 MLOAD SWAP1 DUP2 ADD PUSH1 0x40 MSTORE DUP1 SWAP3 SWAP2 SWAP1 DUP2 DUP2 MSTORE PUSH1 0x20 ADD DUP3 DUP1 SLOAD DUP1 ISZERO PUSH2 0x29C JUMPI PUSH1 0x20 MUL DUP3 ADD SWAP2 SWAP1 PUSH1 0x0 MSTORE PUSH1 0x20 PUSH1 0x0 KECCAK256 SWAP1 JUMPDEST DUP2 SLOAD DUP2 MSTORE PUSH1 0x20 ADD SWAP1 PUSH1 0x1 ADD SWAP1 DUP1 DUP4 GT PUSH2 0x288 JUMPI JUMPDEST POP POP POP POP POP SWAP1 POP SWAP1 JUMP JUMPDEST PUSH1 0x60 PUSH1 0x1 DUP1 SLOAD DUP1 PUSH1 0x20 MUL PUSH1 0x20 ADD PUSH1 0x40 MLOAD SWAP1 DUP2 ADD PUSH1 0x40 MSTORE DUP1 SWAP3 SWAP2 SWAP1 DUP2 DUP2 MSTORE PUSH1 0x20 ADD PUSH1 0x0 SWAP1 JUMPDEST DUP3 DUP3 LT ISZERO PUSH2 0x376 JUMPI DUP4 DUP3 SWAP1 PUSH1 0x0 MSTORE PUSH1 0x20 PUSH1 0x0 KECCAK256 ADD DUP1 SLOAD PUSH2 0x2E9 SWAP1 PUSH2 0x975 JUMP JUMPDEST DUP1 PUSH1 0x1F ADD PUSH1 0x20 DUP1 SWAP2 DIV MUL PUSH1 0x20 ADD PUSH1 0x40 MLOAD SWAP1 DUP2 ADD PUSH1 0x40 MSTORE DUP1 SWAP3 SWAP2 SWAP1 DUP2 DUP2 MSTORE PUSH1 0x20 ADD DUP3 DUP1 SLOAD PUSH2 0x315 SWAP1 PUSH2 0x975 JUMP JUMPDEST DUP1 ISZERO PUSH2 0x362 JUMPI DUP1 PUSH1 0x1F LT PUSH2 0x337 JUMPI PUSH2 0x100 DUP1 DUP4 SLOAD DIV MUL DUP4 MSTORE SWAP2 PUSH1 0x20 ADD SWAP2 PUSH2 0x362 JUMP JUMPDEST DUP3 ADD SWAP2 SWAP1 PUSH1 0x0 MSTORE PUSH1 0x20 PUSH1 0x0 KECCAK256 SWAP1 JUMPDEST DUP2 SLOAD DUP2 MSTORE SWAP1 PUSH1 0x1 ADD SWAP1 PUSH1 0x20 ADD DUP1 DUP4 GT PUSH2 0x345 JUMPI DUP3 SWAP1 SUB PUSH1 0x1F AND DUP3 ADD SWAP2 JUMPDEST POP POP POP POP POP DUP2 MSTORE PUSH1 0x20 ADD SWAP1 PUSH1 0x1 ADD SWAP1 PUSH2 0x2CA JUMP JUMPDEST POP POP POP POP SWAP1 POP SWAP1 JUMP JUMPDEST POP JUMP JUMPDEST PUSH1 0x0 PUSH1 0x40 MLOAD SWAP1 POP SWAP1 JUMP JUMPDEST PUSH1 0x0 DUP1 REVERT JUMPDEST PUSH1 0x0 DUP1 REVERT JUMPDEST PUSH1 0x0 DUP2 SWAP1 POP SWAP2 SWAP1 POP JUMP JUMPDEST PUSH2 0x3A9 DUP2 PUSH2 0x396 JUMP JUMPDEST DUP2 EQ PUSH2 0x3B4 JUMPI PUSH1 0x0 DUP1 REVERT JUMPDEST POP JUMP JUMPDEST PUSH1 0x0 DUP2 CALLDATALOAD SWAP1 POP PUSH2 0x3C6 DUP2 PUSH2 0x3A0 JUMP JUMPDEST SWAP3 SWAP2 POP POP JUMP JUMPDEST PUSH1 0x0 PUSH1 0x20 DUP3 DUP5 SUB SLT ISZERO PUSH2 0x3E2 JUMPI PUSH2 0x3E1 PUSH2 0x38C JUMP JUMPDEST JUMPDEST PUSH1 0x0 PUSH2 0x3F0 DUP5 DUP3 DUP6 ADD PUSH2 0x3B7 JUMP JUMPDEST SWAP2 POP POP SWAP3 SWAP2 POP POP JUMP JUMPDEST PUSH1 0x0 DUP2 MLOAD SWAP1 POP SWAP2 SWAP1 POP JUMP JUMPDEST PUSH1 0x0 DUP3 DUP3 MSTORE PUSH1 0x20 DUP3 ADD SWAP1 POP SWAP3 SWAP2 POP POP JUMP JUMPDEST PUSH1 0x0 DUP2 SWAP1 POP PUSH1 0x20 DUP3 ADD SWAP1 POP SWAP2 SWAP1 POP JUMP JUMPDEST PUSH2 0x42E DUP2 PUSH2 0x396 JUMP JUMPDEST DUP3 MSTORE POP POP JUMP JUMPDEST PUSH1 0x0 PUSH2 0x440 DUP4 DUP4 PUSH2 0x425 JUMP JUMPDEST PUSH1 0x20 DUP4 ADD SWAP1 POP SWAP3 SWAP2 POP POP JUMP JUMPDEST PUSH1 0x0 PUSH1 0x20 DUP3 ADD SWAP1 POP SWAP2 SWAP1 POP JUMP JUMPDEST PUSH1 0x0 PUSH2 0x464 DUP3 PUSH2 0x3F9 JUMP JUMPDEST PUSH2 0x46E DUP2 DUP6 PUSH2 0x404 JUMP JUMPDEST SWAP4 POP PUSH2 0x479 DUP4 PUSH2 0x415 JUMP JUMPDEST DUP1 PUSH1 0x0 JUMPDEST DUP4 DUP2 LT ISZERO PUSH2 0x4AA JUMPI DUP2 MLOAD PUSH2 0x491 DUP9 DUP3 PUSH2 0x434 JUMP JUMPDEST SWAP8 POP PUSH2 0x49C DUP4 PUSH2 0x44C JUMP JUMPDEST SWAP3 POP POP PUSH1 0x1 DUP2 ADD SWAP1 POP PUSH2 0x47D JUMP JUMPDEST POP DUP6 SWAP4 POP POP POP POP SWAP3 SWAP2 POP POP JUMP JUMPDEST PUSH1 0x0 PUSH1 0x20 DUP3 ADD SWAP1 POP DUP2 DUP2 SUB PUSH1 0x0 DUP4 ADD MSTORE PUSH2 0x4D1 DUP2 DUP5 PUSH2 0x459 JUMP JUMPDEST SWAP1 POP SWAP3 SWAP2 POP POP JUMP JUMPDEST PUSH1 0x0 DUP2 MLOAD SWAP1 POP SWAP2 SWAP1 POP JUMP JUMPDEST PUSH1 0x0 DUP3 DUP3 MSTORE PUSH1 0x20 DUP3 ADD SWAP1 POP SWAP3 SWAP2 POP POP JUMP JUMPDEST PUSH1 0x0 DUP2 SWAP1 POP PUSH1 0x20 DUP3 ADD SWAP1 POP SWAP2 SWAP1 POP JUMP JUMPDEST PUSH1 0x0 DUP2 MLOAD SWAP1 POP SWAP2 SWAP1 POP JUMP JUMPDEST PUSH1 0x0 DUP3 DUP3 MSTORE PUSH1 0x20 DUP3 ADD SWAP1 POP SWAP3 SWAP2 POP POP JUMP JUMPDEST PUSH1 0x0 JUMPDEST DUP4 DUP2 LT ISZERO PUSH2 0x53F JUMPI DUP1 DUP3 ADD MLOAD DUP2 DUP5 ADD MSTORE PUSH1 0x20 DUP2 ADD SWAP1 POP PUSH2 0x524 JUMP JUMPDEST PUSH1 0x0 DUP5 DUP5 ADD MSTORE POP POP POP POP JUMP JUMPDEST PUSH1 0x0 PUSH1 0x1F NOT PUSH1 0x1F DUP4 ADD AND SWAP1 POP SWAP2 SWAP1 POP JUMP JUMPDEST PUSH1 0x0 PUSH2 0x567 DUP3 PUSH2 0x505 JUMP JUMPDEST PUSH2 0x571 DUP2 DUP6 PUSH2 0x510 JUMP JUMPDEST SWAP4 POP PUSH2 0x581 DUP2 DUP6 PUSH1 0x20 DUP7 ADD PUSH2 0x521 JUMP JUMPDEST PUSH2 0x58A DUP2 PUSH2 0x54B JUMP JUMPDEST DUP5 ADD SWAP2 POP POP SWAP3 SWAP2 POP POP JUMP JUMPDEST PUSH1 0x0 PUSH2 0x5A1 DUP4 DUP4 PUSH2 0x55C JUMP JUMPDEST SWAP1 POP SWAP3 SWAP2 POP POP JUMP JUMPDEST PUSH1 0x0 PUSH1 0x20 DUP3 ADD SWAP1 POP SWAP2 SWAP1 POP JUMP JUMPDEST PUSH1 0x0 PUSH2 0x5C1 DUP3 PUSH2 0x4D9 JUMP JUMPDEST PUSH2 0x5CB DUP2 DUP6 PUSH2 0x4E4 JUMP JUMPDEST SWAP4 POP DUP4 PUSH1 0x20 DUP3 MUL DUP6 ADD PUSH2 0x5DD DUP6 PUSH2 0x4F5 JUMP JUMPDEST DUP1 PUSH1 0x0 JUMPDEST DUP6 DUP2 LT ISZERO PUSH2 0x619 JUMPI DUP5 DUP5 SUB DUP10 MSTORE DUP2 MLOAD PUSH2 0x5FA DUP6 DUP3 PUSH2 0x595 JUMP JUMPDEST SWAP5 POP PUSH2 0x605 DUP4 PUSH2 0x5A9 JUMP JUMPDEST SWAP3 POP PUSH1 0x20 DUP11 ADD SWAP10 POP POP PUSH1 0x1 DUP2 ADD SWAP1 POP PUSH2 0x5E1 JUMP JUMPDEST POP DUP3 SWAP8 POP DUP8 SWAP6 POP POP POP POP POP POP SWAP3 SWAP2 POP POP JUMP JUMPDEST PUSH1 0x0 PUSH1 0x20 DUP3 ADD SWAP1 POP DUP2 DUP2 SUB PUSH1 0x0 DUP4 ADD MSTORE PUSH2 0x645 DUP2 DUP5 PUSH2 0x5B6 JUMP JUMPDEST SWAP1 POP SWAP3 SWAP2 POP POP JUMP JUMPDEST PUSH1 0x0 DUP1 REVERT JUMPDEST PUSH1 0x0 DUP1 REVERT JUMPDEST PUSH32 0x4E487B7100000000000000000000000000000000000000000000000000000000 PUSH1 0x0 MSTORE PUSH1 0x41 PUSH1 0x4 MSTORE PUSH1 0x24 PUSH1 0x0 REVERT JUMPDEST PUSH2 0x68F DUP3 PUSH2 0x54B JUMP JUMPDEST DUP2 ADD DUP2 DUP2 LT PUSH8 0xFFFFFFFFFFFFFFFF DUP3 GT OR ISZERO PUSH2 0x6AE JUMPI PUSH2 0x6AD PUSH2 0x657 JUMP JUMPDEST JUMPDEST DUP1 PUSH1 0x40 MSTORE POP POP POP JUMP JUMPDEST PUSH1 0x0 PUSH2 0x6C1 PUSH2 0x382 JUMP JUMPDEST SWAP1 POP PUSH2 0x6CD DUP3 DUP3 PUSH2 0x686 JUMP JUMPDEST SWAP2 SWAP1 POP JUMP JUMPDEST PUSH1 0x0 PUSH8 0xFFFFFFFFFFFFFFFF DUP3 GT ISZERO PUSH2 0x6ED JUMPI PUSH2 0x6EC PUSH2 0x657 JUMP JUMPDEST JUMPDEST PUSH2 0x6F6 DUP3 PUSH2 0x54B JUMP JUMPDEST SWAP1 POP PUSH1 0x20 DUP2 ADD SWAP1 POP SWAP2 SWAP1 POP JUMP JUMPDEST DUP3 DUP2 DUP4 CALLDATACOPY PUSH1 0x0 DUP4 DUP4 ADD MSTORE POP POP POP JUMP JUMPDEST PUSH1 0x0 PUSH2 0x725 PUSH2 0x720 DUP5 PUSH2 0x6D2 JUMP JUMPDEST PUSH2 0x6B7 JUMP JUMPDEST SWAP1 POP DUP3 DUP2 MSTORE PUSH1 0x20 DUP2 ADD DUP5 DUP5 DUP5 ADD GT ISZERO PUSH2 0x741 JUMPI PUSH2 0x740 PUSH2 0x652 JUMP JUMPDEST JUMPDEST PUSH2 0x74C DUP5 DUP3 DUP6 PUSH2 0x703 JUMP JUMPDEST POP SWAP4 SWAP3 POP POP POP JUMP JUMPDEST PUSH1 0x0 DUP3 PUSH1 0x1F DUP4 ADD SLT PUSH2 0x769 JUMPI PUSH2 0x768 PUSH2 0x64D JUMP JUMPDEST JUMPDEST DUP2 CALLDATALOAD PUSH2 0x779 DUP5 DUP3 PUSH1 0x20 DUP7 ADD PUSH2 0x712 JUMP JUMPDEST SWAP2 POP POP SWAP3 SWAP2 POP POP JUMP JUMPDEST PUSH1 0x0 PUSH1 0x20 DUP3 DUP5 SUB SLT ISZERO PUSH2 0x798 JUMPI PUSH2 0x797 PUSH2 0x38C JUMP JUMPDEST JUMPDEST PUSH1 0x0 DUP3 ADD CALLDATALOAD PUSH8 0xFFFFFFFFFFFFFFFF DUP2 GT ISZERO PUSH2 0x7B6 JUMPI PUSH2 0x7B5 PUSH2 0x391 JUMP JUMPDEST JUMPDEST PUSH2 0x7C2 DUP5 DUP3 DUP6 ADD PUSH2 0x754 JUMP JUMPDEST SWAP2 POP POP SWAP3 SWAP2 POP POP JUMP JUMPDEST PUSH1 0x0 DUP3 DUP3 MSTORE PUSH1 0x20 DUP3 ADD SWAP1 POP SWAP3 SWAP2 POP POP JUMP JUMPDEST PUSH32 0x496E76616C6964206F7074696F6E000000000000000000000000000000000000 PUSH1 0x0 DUP3 ADD MSTORE POP JUMP JUMPDEST PUSH1 0x0 PUSH2 0x812 PUSH1 0xE DUP4 PUSH2 0x7CB JUMP JUMPDEST SWAP2 POP PUSH2 0x81D DUP3 PUSH2 0x7DC JUMP JUMPDEST PUSH1 0x20 DUP3 ADD SWAP1 POP SWAP2 SWAP1 POP JUMP JUMPDEST PUSH1 0x0 PUSH1 0x20 DUP3 ADD SWAP1 POP DUP2 DUP2 SUB PUSH1 0x0 DUP4 ADD MSTORE PUSH2 0x841 DUP2 PUSH2 0x805 JUMP JUMPDEST SWAP1 POP SWAP2 SWAP1 POP JUMP JUMPDEST PUSH32 0x4163636F756E742068617320616C726561647920766F74656400000000000000 PUSH1 0x0 DUP3 ADD MSTORE POP JUMP JUMPDEST PUSH1 0x0 PUSH2 0x87E PUSH1 0x19 DUP4 PUSH2 0x7CB JUMP JUMPDEST SWAP2 POP PUSH2 0x889 DUP3 PUSH2 0x848 JUMP JUMPDEST PUSH1 0x20 DUP3 ADD SWAP1 POP SWAP2 SWAP1 POP JUMP JUMPDEST PUSH1 0x0 PUSH1 0x20 DUP3 ADD SWAP1 POP DUP2 DUP2 SUB PUSH1 0x0 DUP4 ADD MSTORE PUSH2 0x8AD DUP2 PUSH2 0x871 JUMP JUMPDEST SWAP1 POP SWAP2 SWAP1 POP JUMP JUMPDEST PUSH32 0x4E487B7100000000000000000000000000000000000000000000000000000000 PUSH1 0x0 MSTORE PUSH1 0x32 PUSH1 0x4 MSTORE PUSH1 0x24 PUSH1 0x0 REVERT JUMPDEST PUSH32 0x4E487B7100000000000000000000000000000000000000000000000000000000 PUSH1 0x0 MSTORE PUSH1 0x11 PUSH1 0x4 MSTORE PUSH1 0x24 PUSH1 0x0 REVERT JUMPDEST PUSH1 0x0 PUSH2 0x91D DUP3 PUSH2 0x396 JUMP JUMPDEST SWAP2 POP PUSH2 0x928 DUP4 PUSH2 0x396 JUMP JUMPDEST SWAP3 POP DUP3 DUP3 ADD SWAP1 POP DUP1 DUP3 GT ISZERO PUSH2 0x940 JUMPI PUSH2 0x93F PUSH2 0x8E3 JUMP JUMPDEST JUMPDEST SWAP3 SWAP2 POP POP JUMP JUMPDEST PUSH32 0x4E487B7100000000000000000000000000000000000000000000000000000000 PUSH1 0x0 MSTORE PUSH1 0x22 PUSH1 0x4 MSTORE PUSH1 0x24 PUSH1 0x0 REVERT JUMPDEST PUSH1 0x0 PUSH1 0x2 DUP3 DIV SWAP1 POP PUSH1 0x1 DUP3 AND DUP1 PUSH2 0x98D JUMPI PUSH1 0x7F DUP3 AND SWAP2 POP JUMPDEST PUSH1 0x20 DUP3 LT DUP2 SUB PUSH2 0x9A0 JUMPI PUSH2 0x99F PUSH2 0x946 JUMP JUMPDEST JUMPDEST POP SWAP2 SWAP1 POP JUMP INVALID LOG2 PUSH5 0x6970667358 0x22 SLT KECCAK256 RETURNDATACOPY 0xE6 SWAP6 PUSH25 0xA5316D761B239D85A377F2E9169B65073D917454476A0A65A8 PUSH25 0xEE8C64736F6C63430008100033000000000000000000000000 "
				},
				"gasEstimates": {
					"creation": {
						"codeDepositCost": "504800",
						"executionCost": "infinite",
						"totalCost": "infinite"
					},
					"external": {
						"getOptions()": "infinite",
						"getVotes()": "infinite",
						"vote(string)": "infinite",
						"vote(uint256)": "infinite"
					}
				},
				"methodIdentifiers": {
					"getOptions()": "cc2ee196",
					"getVotes()": "0dc96015",
					"vote(string)": "fc36e15b",
					"vote(uint256)": "0121b93f"
				}
			},
			"storageLayout": {
				"storage": [
					{
						"astId": 9,
						"contract": "contracts/Vote.sol:Vote",
						"label": "votes",
						"offset": 0,
						"slot": "0",
						"type": "t_array(t_uint256)dyn_storage"
					},
					{
						"astId": 12,
						"contract": "contracts/Vote.sol:Vote",
						"label": "options",
						"offset": 0,
						"slot": "1",
						"type": "t_array(t_string_storage)dyn_storage"
					},
					{
						"astId": 16,
						"contract": "contracts/Vote.sol:Vote",
						"label": "hasVoted",
						"offset": 0,
						"slot": "2",
						"type": "t_mapping(t_address,t_bool)"
					},
					{
						"astId": 21,
						"contract": "contracts/Vote.sol:Vote",
						"label": "positionOfOption",
						"offset": 0,
						"slot": "3",
						"type": "t_mapping(t_string_memory_ptr,t_struct(OptionPosition)6_storage)"
					}
				],
				"types": {
					"t_address": {
						"encoding": "inplace",
						"label": "address",
						"numberOfBytes": "20"
					},
					"t_array(t_string_storage)dyn_storage": {
						"base": "t_string_storage",
						"encoding": "dynamic_array",
						"label": "string[]",
						"numberOfBytes": "32"
					},
					"t_array(t_uint256)dyn_storage": {
						"base": "t_uint256",
						"encoding": "dynamic_array",
						"label": "uint256[]",
						"numberOfBytes": "32"
					},
					"t_bool": {
						"encoding": "inplace",
						"label": "bool",
						"numberOfBytes": "1"
					},
					"t_mapping(t_address,t_bool)": {
						"encoding": "mapping",
						"key": "t_address",
						"label": "mapping(address => bool)",
						"numberOfBytes": "32",
						"value": "t_bool"
					},
					"t_mapping(t_string_memory_ptr,t_struct(OptionPosition)6_storage)": {
						"encoding": "mapping",
						"key": "t_string_memory_ptr",
						"label": "mapping(string => struct Vote.OptionPosition)",
						"numberOfBytes": "32",
						"value": "t_struct(OptionPosition)6_storage"
					},
					"t_string_memory_ptr": {
						"encoding": "bytes",
						"label": "string",
						"numberOfBytes": "32"
					},
					"t_string_storage": {
						"encoding": "bytes",
						"label": "string",
						"numberOfBytes": "32"
					},
					"t_struct(OptionPosition)6_storage": {
						"encoding": "inplace",
						"label": "struct Vote.OptionPosition",
						"members": [
							{
								"astId": 3,
								"contract": "contracts/Vote.sol:Vote",
								"label": "position",
								"offset": 0,
								"slot": "0",
								"type": "t_uint256"
							},
							{
								"astId": 5,
								"contract": "contracts/Vote.sol:Vote",
								"label": "exists",
								"offset": 0,
								"slot": "1",
								"type": "t_bool"
							}
						],
						"numberOfBytes": "64"
					},
					"t_uint256": {
						"encoding": "inplace",
						"label": "uint256",
						"numberOfBytes": "32"
					}
				}
			},
			"userdoc": {
				"kind": "user",
				"methods": {},
				"version": 1
			}
		}
	}
}